:20000000003C0120D956010039FB021039FB021039FB021039FB021039FB021039FB0210AF
:1C00200039FB021039FB021039FB021039FB021039FB021039FB021011FB021002
:20003C0038B586B004468DF805104FF6FF720120ADF80220090ADFF8545AADF8000002239D
:20005C008DF806108DF8043069462A7820461BF053F8162803D1297820461BF049F807B007
:20007C0030BD3EB504000D461ED0DFF8240A006822461BF039F8FF2815D00020009000234F
:20009C0001AA294620460FF065FF60B99DF8040000F075F9C00606D59DF8040000F06FF9BF
:2000BC0010F0040000D001203EBDFEB5164615244FF6FF7290420D4615D100208DF8040082
:2000DC00DFF8C8799DF80400F97988421AD23246294600F03AF800B100249DF80400401C58
:2000FC008DF80400EEE71AF0FBFF50B100F0A2FB40B99DF804003246294600F026F8002449
:20011C0000E014242046FEBD7CB50D46044606214C43164600F080F8A8B900F078F890B938
:20013C009DF80700002E14BF054320EA0505E9B2814206D08DF807506A460821A0B218F067
:20015C0013FE012076BD002076BD2DE9FC410646344606235C438846154600F05DF8002854
:20017C0052D100F054F800284ED1DFF82079387A80001AF06FF8040002D100F02BFA43E09B
:20019C00397AE03689062246090EB0B218F0D8FD002835D1204600F058F85FEA08000ED129
:2001BC003A7A9206120E0021204619F059FA38BB3A7A92000021204619F0BAFE16E02146F6
:2001DC0000F030F858B9280004D02146002000F029F810B900F0DDFB16E0A0F800808178AE
:2001FC00A9420DD085700DB900210180204600F02CF8397A89062246090EB0B218F0B4FD68
:20021C0000F0C7FB012000E00020BDE8F6810622FF21684619F024BA20346A460821A0B277
:20023C0018F08EBD70B5DFF864381D7A002200E0521CD4B2AC4206D231F824608642F7D127
:20025C0001EB840070BD002070BD10B50021DFF83C280AE030F82130DB4320F8213000EBA2
:20027C008103491C9C78E4439C70137A9942F1DB10BD2DE9FE4FDFF814480646207A0F4660
:20029C0091469B46800019F0E5FF5FEA000803D100F0A0F90A206CE00C9D0297B246062792
:2002BC0017FB0AF7029A07F12000082100F064F88DF80400304600F09FF8227A9200FF2112
:2002DC00404619F035FE9DF804000090E036217A89064246090EB0B218F046FD009E029952
:2002FC000643206A082200EBCA0019F017FEBDB10299887900232A4600F001001AF0ECFE90
:20031C0000281CBF9DF93C00002803D0DFF884170120087007F123002A4600F02CF80643FE
:20033C005FEA090205D007F121001C2100F024F806435FEA0B0205D007F122001C2100F05B
:20035C001BF806430D9A62B107F1240000F013F8054625370EAA0421B8B218F005FD054314
:20037C002E43207D08B100F09AFA404619F07AFFF0B2BDE8FE8F102180B218F0F5BCE0B589
:20039C000623584320306A46082180B218F0D8FC10B99DF807000EBD00200EBDDFF8EC0662
:2003BC00007808210EF0BCBE38B50025DFF8DC4619E0206A062313FB05F300EBC502203346
:2003DC00082198B218F0BCFC58B1206A0622FF2100EBC50019F0ACFD206A00EBC501002234
:2003FC00CA716D1CEDB2E1798D42E2DB207D10B1BDE8314053E231BDF8B5DFF89016DFF800
:20041C009836C9791E680C460A4600E02A46D5B23DB1551ED2B2324412F8017C8742F5D140
:20043C002C46E4B220464D1E07E01718165C7F7817541A680244401C5670A8421A68F4DBB8
:20045C00AC4204DABDE8F840052018F08DBCF1BD70B50024DFF8345600E0641CE879E3B2B3
:20047C0083420BD22B6AE6B20622FF2103EBC60019F0F6F80028F0D0E0B270BDDFF81C26DE
:20049C00117819B1DFF810060168087870BD38B500200024DFF8F45503E0E0B200F008F834
:2004BC00641CEA79E1B2914201D20100F5D032BD2DE9F84F83465D46062313FB05F58EB017
:2004DC0005F1200701AA0821B8B218F039FC002873D10622FF2101A819F0C2F800286CD1E3
:2004FC00DFF8A865307A800019F0B4FE5FEA000903D100F06FF80A2061E01C22FF2103A826
:20051C0019F016FD327A9200FF21484619F010FD05F123040AAA1021A0B218F011FC60B91F
:20053C001022FF210AA819F09BF830B99DF80A0001A900F001001AF0CBFD082200F042F8B6
:20055C0001AA0821B8B218F00FFC8DF8000003AA05F1210000F03AF8074605F1220003AAB1
:20057C0000F034F8804603AA1021A0B218F0FCFB044605F1240003AA102100F028F8824634
:20059C00253503AA0421A8B248EA070718F0ECFB2743317A9DF800504AEA07070743890675
:2005BC000BF1E0034A46090E98B218F0DDFB0743484619F057FE3D4300E0002528460FB087
:2005DC00BDE8F08FFF2101A819F0B2BC1C2180B218F0CABB042018F0E9B92DE9F84187B04B
:2005FC00FF208DF80000DFF8A454E87919F032FE040003D1FFF7EEFF0A2030E01022FF218B
:20061C0003A819F095FCEA79FF21204619F090FC0622FFF7D7FF03AA1021022018F0A4FB60
:20063C00064603AA1021032018F09EFB06436A460121042018F098FB0746E979224605209A
:20065C0018F092FB054601AA0621062018F08CFB804600F09EF93E432E4348EA060008B0E8
:20067C00BDE8F081DFF824144088097818F0DCBAF0B5A9B006460D4614461AF031FD08B962
:20069C001420ACE0A4220021684619F051FCADF800600DF12607DFF8F463F078B17B8DF81C
:2006BC000400F07B8DF8A000279861F30000B17B27908A074CBF0222002220F0020010434D
:2006DC002790CA064CBF4FF48072002220F48070104327908A064CBF4FF40072002220F481
:2006FC000070104327904A064CBF4FF48062002220F480601043279049074CBF0421002123
:20071C0020F0040008432790307C02280CBF0120002078741AF0D8FC412807DB307C00B153
:20073C0008209DF8991008438DF89900B07CB8B10121B974202206F18C010DF1390019F0E4
:20075C00EDFB202206F1AC010DF1590019F0E6FB202206F1CC010DF1790019F0DFFB00E02E
:20077C00B874707B8DF8050090B1DFF83473102207F110010DF1060019F0D0FB9DF89900BC
:20079C00082805D1102239460DF1160019F0C6FB307B8DF8260030B11022DFF808130DF14F
:2007BC00270019F0BBFB307948B1022D18BF032D03D1279840F002002790012100E00021C0
:2007DC009DF899000143B0788DF8991000B1042001438DF89910684621461AF071FC29B089
:2007FC00F0BD2DE9FC41154615244FF6FF72904288460DD10027A54EF179F8B2884216D235
:20081C002A464146FFF780FC00B100247F1CF3E71AF066FC50B100F00DF840B99DF8040015
:20083C002A464146FFF770FC002400E014242046BDE8F681002100910023417901AA01F05A
:20085C000101801D0FF086BB70B504460D4606204543082B88B0164603D1300758BF2235ED
:20087C0000D521351C220021FFF7ADFE01AA1C21A8B218F065FA80B99DF81E00C01F0A288B
:20089C000BD29DF830000090F20801AB02F0010206F0010120461AF00FFC08B070BD38B52A
:2008BC001AF006FC0024794D0FE0286A0622FF2100EBC40018F0D4FE28B9286A00EBC401B1
:2008DC0000201AF0F1FB641CE4B2E8798442ECDB31BD3EB50C46002501460095002301AAE0
:2008FC0020460FF037FB38B99DF80400FFF747FDC00601D401203EBD00203EBD2DE9F04168
:20091C00694F3C6806468846154603E02089B04224D02468002CF9D10C2019F09BFC040026
:20093C0019D0268184F80A8000202060E07245B10821284618F092FF606018B900F029F84B
:20095C000AE06060396811B93C6004E0014608680028FBD10C600CB9152018E01AF0A0FB38
:20097C0008B1002013E00120E0722A4641463046FFF77EFE04464548C06900281CBF43688F
:20099C00002B03D000220021304698472046BDE8F081204619F066BC38B50546424804686A
:2009BC0003E02089A84204D02468002CF9D1012032BDE07A012807D100F05CF820B1334854
:2009DC00007804210EF0ACFBE17A491CE1722846C9B200F002F8002032BD38B50229044662
:2009FC002A4D02D003290DD01EE042F6C921FFF717FB02001CBFE869002818D04368B3B114
:200A1C0005210CE042F6A621FFF70AFB01001CBFE96900290BD04B684BB1024604212046FA
:200A3C0001B0BDE830401847BDE8324000E031BD10B51D4A1468002101E0214624686CB1D6
:200A5C0023898342F9D1206800290CBF10600860606808B119F006FCFFF79BFF002010BDE2
:200A7C00024604201049096819B10B899342FAD1C87A70470C48006828B1006818B1C17A2C
:200A9C000029FAD17047002070470000F0280020680F0020A954002040540020A8540020FC
:200ABC00F451002024520020445400202DE9F04385B0064600208946009090461C46B179BC
:200ADC00002304AA30460FF045FA20B1FFF7C0FC8DF810001BE0D4B19DF81030062043435C
:200AFC0023336A46102198B218F02AF978B91022FF21684618F0B4FD48B9B079314600F0B3
:200B1C0001001AF0E5FA10B1194901200870194F9DF81000F979884227D201200390009489
:200B3C0043460C980D990E9D019002914A469DF810003146FFF79DFB044655B1397A9DF825
:200B5C0010008906E0302A46090E80B218F00CF90443200005D09DF81000FFF7A9FCFFF792
:200B7C0023FC204605B0BDE8F0831520FAE700BFA9540020F02800202DE9F84F012017F058
:200B9C000FFB012816D1DFF89866307800211AF083FA040004BF002017F008FF0020207253
:200BBC00201D10F0D3F807F089F8050003D181201AF06EFA30E301206871DFF86826DFF864
:200BDC0068064178491C4170A879A0724020317811700EF0EFFF2860616D4A78206DD10697
:200BFC0020D5816C0A681179032908D0816C0868007903280CBF0120002017F0D7FE206D81
:200C1C00816C0A6890F86C0002F1080701281CBF002017F0CBFE216D486F296800F5B06094
:200C3C00C8604AE0C16E0A681179032908D0C16E0868007903280CBF0120002017F0B6FE0D
:200C5C00206DC16E0A6890F8980002F1080701281CBF002017F0AAFE226DB5F87401D2F8DA
:200C7C00A0102A68DFF8C435DFF8C465D16097F82690B9F1030F1BD8DFE809F002050E113B
:200C9C0001F5B06101E001F53471D16005F59A711888088718880EE001F5355101E001F66E
:200CBC00B871D16005F59A7130880887308802E001F5B061D160A5F8740106222868DFF8FF
:200CDC007465C168DFF8708501F59071C160B91C3878C0F3801085F82E0105F5947019F097
:200CFC001DF9042207F10E0105F1240019F016F9306895F8069000F10C03042207F10E017B
:200D1C0003EB491019F00AF93068AB7900EB4313032207F1120103F1100019F0FFF805F13D
:200D3C002C09787D89F80200022207F1160105F1300019F0F3F8022207F1180105F1320040
:200D5C0019F0ECF8022207F11A0105F1340019F0E5F8B9F808006884022207F11C0105F16F
:200D7C00360019F0DBF899F80200B9F80A10400089F802000901B9F80400A9F80A1040006A
:200D9C00A9F8040089B2B9F806004000A9F8060003046A8C521CDB0B5A438A4201D280B2FA
:200DBC0030B998F8000080210EF0BAF93B2133E105F12E0128461AF067F90520A8814FF052
:200DDC001C0A28461AF05CF9052207F11E0105F1610019F0A3F897F82300400989F800004F
:200DFC001AF04AF9688205F59A72618D401AD08005F1610197F82300DFF8407400F01F005E
:200E1C0089F80F0028461AF033F9616D4A78206DD1064CBF816CC16E41F62102086800217C
:200E3C000171A97938681AFB01F142520021AB791AFB03F303445980AA791AFB02F21044D7
:200E5C004160616DDFF8F8034A78D1060DD5DFF8F4138A7851060AD5DFF8EC23138841F2F0
:200E7C000A418B4208BFDFF8E403C5F89C01D5F89C11284688473A68A97902F10E031AFBCB
:200E9C0001F15854AA7938681AFB02F202440020D0733968A87901F10E021AFB00F0115CED
:200EBC0089F80D10606D4178CA061DD595F8960108B917F07BFDA97938681AFB01F10144BE
:200EDC0095F89601421E0A74A87939681AFB00F00844002141743A68A97902F112001AFB2D
:200EFC0001F1002242522BE0A97938681AFB01F10144206D90F840200A74A87939681AFB4B
:200F1C0000F00844216D91F841204274206D3968AB79403001F112021AFB03F34188D1528C
:200F3C0005F5CB710078012200F0030082400A70226D92F84000800814BF01200220087125
:200F5C003968A879DFF808B301F1140231681AFB00F301EB4010D050A87939681AFB00F055
:200F7C000844BC498161DBF814000078C107DBF8141009784CBF1F200F208A07DBF8141082
:200F9C00097848BF40F020004A07DBF81410097848BF40F040000A073168AA7901EB42130F
:200FBC0048BF40F080001872A979306800EB41120B2050723168AA7901EB42100421A64AE0
:200FDC0081721078012806D13168A87901EB40120121D17207E0DBF824003168AA794078CB
:200FFC0001EB4213D8723168A87901EB40121F2111763068AA7900EB421100204876A87993
:20101C000EF01CFDAA79316852018850AA7931685201885820B90721284617F019FEFBE05F
:20103C008E48AA79016801EB02101AF01DF8A87931688A4B01EB4012196801EB001050601B
:20105C00A979306800EB41125168C9F83C10AA7952018158C9F84410042198F800000EF09F
:20107C005FF8616D4A783868D10648BF02210AD4A9791AFB01F101440A7C02F00302022AD7
:20109C0014BF04210621B9F8042095F806C04FF4C8738A18698AAA615143B1FBF3F35B1C32
:2010BC006B611AFB0CFCD5F800E06044DEF80CC040F6C41101FB02C2D21AA2F5A8628260FE
:2010DC00AA7938681AFB02F283189A682B689A6000F10C03AA791AFB02F20C309B5C03F0AC
:2010FC00EF038354A8793A681AFB00F002F10C030C321B5C03F07F031354A8793A681AFBD8
:20111C0000F002F10C030C321B5C03F0F00343F002031354AB7938681AFB03F31844427B9F
:20113C0002F0F00242F001024273AA7938681AFB02F2024490682B6818613068AB7999F862
:20115C0002C000F11402686940005B0111FB0C0000F5F660D05095F8960104280DD13068F4
:20117C00AA7900F114034FEA421C143053F80C20AB795B0102F56162C2503068AA7900F1DE
:20119C0014034FEA421C53F80C20C5F83421AA7900EB4210C37C03F0F00343F00403C37406
:2011BC00DBF830003268AB79006802EB431CB9F8062042436423B2FBF3F35943A1F59661FF
:2011DC00CCF81C103068A97900EB4110C27E02F0F00242F00402C276A97938682A681AFB10
:2011FC0001FA00EB0A01516028460E2119F038FF1B4907200870204616F050FB1948817840
:20121C00880704D5AA790021204619F025FF28681549164A41618261BDE8F14F03F0F4BE16
:20123C00D50F0020D70F0020780E00208E0F0020900F00209C0E0020C70F0020980E0020E0
:20125C0081010210C00C00209A0F00204DE50110DCD50100980C0020CC0F0020A40E0020A3
:20127C00C80F0020200E0020F9D80000020480802DE9F84F054688B0A978DFF83C66002795
:20129C0010294FF0060A3CD8DFE811F0110012031203120312033C00CF00120312037502BD
:2012BC0015010001C70212034B028D020A036878002826D119F0CCFE044619F0C5FE054601
:2012DC0019F0BEFE8DF8000022461021022017F04BFD2A461021032017F046FD6A460121BE
:2012FC00042017F041FD9DF80000012818BF032807D1012019F0A0FE02460621062017F06D
:20131C0033FDD5E268780028FBD195F80CB06C8900900023E97801AA01F00101281D0EF0C3
:20133C0019FE00284FF0010875D19DF80400FFF726F88146BBF1080F307A08BFB84680009E
:20135C0018F088FF050003D1042017F02FFBAFE270789DF8041002280CBF012000200090CC
:20137C005B464A462046FFF76FFA1422002102A818F0DEFD9DF804001AFB00F0243002AAD9
:20139C00102180B217F0DCFCB0B91022FF2102A818F066F980B99DF804001AFB00FA0AF147
:2013BC00250306AA042198B217F0CAFC02AA09F00101204619F03CFE317A9DF804008906DA
:2013DC00E0302A46090E80B217F0BAFC98B92846FEF73BFFBA4609E005EB8000018819B1D1
:2013FC008278204617F090FF0AF1010A317A5FFA8AF08842F0D3B07A30B95FEA897003D59D
:20141C003178204617F010FC9DF80400FEF7F4FF284618F027FF7078022805D1B8F1000FD1
:20143C0002D0204613F0CAFB42E2A888FFF700FB19F0FAFD0028F7D1707D012808D1FFF776
:20145C0026F8706A77750422002118F071FD17E0B07D012803D1FFF7C0F8B77510E00024C0
:20147C000AE0706AE5B2415D012904D1E0B2FFF71FF8716A4F55641CE0B2F1798842F0D331
:20149C00502018F041F8FEF78FFF11E219F008FE00280CD0F06900281CBF0468002C07D02B
:2014BC00286900906B7B2A7B6989E81CA047FEE168890121F1E168780024002840F01A81CC
:2014DC00A879C10740F116810822002105A818F02FFDA88819F004FE040076D06F694FB3B4
:2014FC000622002107F1110018F0BAF868B306220021384618F0B4F8D0B9387C00F00108F8
:20151C004FF0000909F1010987F811900020009000230022414607F111000EF01BFD002880
:20153C005FFA89F002D10028ECD101E000280CD1002068610622607900F001008DF81A00A5
:20155C00A11D05A818F0EAFC1FE06F69EFB1387C00F001008DF81A00062207F1110105A87C
:20157C0018F0DCFC6079012805D10622A11D04F10C0018F0D3FC062207F11101A01D18F0E2
:20159C00CDFC387C40F002006071A879410720794CBF40F0020000F0FD002071A9790A07BF
:2015BC0054BF00F0DF0040F020002071A9799DF81B00890801F0010108438DF81B00A979E9
:2015DC000A074CBF0821002108E0FFF753FA0028ECD0307804210DF0A3FDE7E708438DF872
:2015FC001B000020009000239DF81A1004AA05A80EF0B0FC20B1FEF72BFF8DF810001AE09E
:20161C006869C0B19DF810001AFB00FA0AF123036A46102198B217F093FB60B91022FF216C
:20163C00684618F01DF830B99DF81A0005A900F0010019F04DFD9DF81000F179884255D239
:20165C00E8680021039105A90269019002924FF6FF78686900902B69AA689DF81000FEF7CE
:20167C0008FE0446AF88B06A48B906F1180100910223924A4146012019F0D2FCB062B16A5E
:20169C0019B3FF200390022200230292019307A800900DF11203328B384606F037FF68B967
:2016BC009DF812009DF8131000EB012290B228B1B06A418992B23846FEF7F7FC328BB06A21
:2016DC000023414619F0A8FCB062200005D09DF81000FEF7EDFEFEF767FE200007D1707ACF
:2016FC000028A88804D1FFF757F903E01524A888FFF79EF9F06900281CBF4368002B0FD071
:20171C006A78A888012198476878002808D1A879C10705D5F369A88822465C680321A04733
:20173C00BEE0687806281BD1A88819F0D9FCB8B1F17C012904D013D3032907D00CD30FE05C
:20175C004179A8880022FFF7D9F809E00022002140F2094004F0E0FEA888052119F058FC6E
:20177C00F06900281CBF4368002B03D06A78A888022198479BE000970023E97801AA01F002
:20179C000101281D0EF0E6FB0028F3D19DF804001AFB00FA0AF1250305F10C02042198B2DD
:2017BC0017F0E2FA83E0F06900281CBF4368002B03D0A888002200219847707810B9A8888F
:2017DC0005216AE0A88819F08BFC040070D0A87AC10712D5009700236179002201F00101FF
:2017FC00A01D0EF0B7FB00281EBF60790028012803D0E868C0F3402028B1307C022807D174
:20181C00A87A010704D4A888032119F0FDFB4FE06179A88805F1080227E02F7BAD882846C8
:20183C0019F05EFC040042D019F03AFC00283ED100900023617901AA01F00101A01D0EF0B7
:20185C0089FB28BB9DF80400FEF799FD07F00C07042F11D0082F0BD00C2F0FD100F009019C
:20187C0009290BD0617900222846FFF747F81EE010F0090F02D1F5E7C107F3D50122009296
:20189C00A37C9DF8041002462846FEF7DDFF0EE070780028E6D10521284619F0B5FB06E0F5
:2018BC00FFF7E8F818B1307804210DF039FC0127384609B0BDE8F08FF028002070CF010073
:2018DC002DE9F04F0446B7480D461646ADF5FE7D5B1E011DADF1600D9095F21E8F94D1F8BF
:2018FC0000C0929316F1140FCDF854C24FF01801CDF850C292FBF1F19391BCBF0021939160
:20191C000C466246A6EB04161946A6EBC406183E8D18A4EB0104969612D406466D1CE846A8
:20193C005036002C44BFC3A003C803D456F8240016F08BFF6D1EA8E8030004F10104F0D1F6
:20195C009598002828D405460DF5A07B00266D1C929FB8A090E80003002F17D4DDF83CA232
:20197C0006EBC7007F1C0DEB0004BAE8030094E80C000CF0AFF80B4602464946404607F087
:20199C004EFD083C894680467F1EEED16D1EABE8000306F10806DBD19598919048E0B9F1B9
:2019BC00000F42DD9199DDF848C2939A7D4F0DEBC1030CEB0100CB4603F5A473C4008A18A1
:2019DC008C93083407EB820000F1500A61440DEBC1065AF8040F16F038FF083686E803001C
:2019FC0094A003C8929F8D90002F8E9115D4DDF83C820DEB04057F1CB8E8030095E80C00EC
:201A1C000CF068F80B4602468E998D9807F007FD083D8E917F1E8D90EED18C9ABBF1010BB3
:201A3C0003C204F108048C92D3D1919848449190C5000DEB050404F5A07494E800030028B2
:201A5C0028DD083C07460DF5F07BC4A20CCA494640460CF03FF814F0C1FF16F0F6FEC1A2C2
:201A7C000CCA8A4606460CF035F80B4602464946404607F0CFFC14F0B1FF4BF8040B94E83D
:201A9C0003005346324607F0CAFC083C894680467F1EDAD1969F49EC108B38460BF008FBB7
:201ABC00B2A20CCA5AEC109B514648460CF012F841EC100B0CF000FAAEA20CCA51EC100B08
:201ADC000CF008F80B4602465146484607F0A2FC8846814614F082FF8D9016F0B6FE0B4659
:201AFC0002464146484607F095FC0FF2982B88468146002F14DC381C0BD0A0A20CCA484698
:201B1C0010F09BFC84BF00208E9073D802208E9020E091980DEB8000D0F8DC01C01516E0F5
:201B3C0091983C460DEB800303F5F0738D9F53F8040CC4F11802C4F1170440FA02F101FABA
:201B5C0002F2801A43F8040C7A188D92204100288E904FDD9198002400280EDD77A951F843
:201B7C00047F24B93FB1C7F18077012402E06FF07F42D71B0F60401EF1D1969F8D98002F19
:201B9C0000F101008D901ADD7F1E0DD07F1E16D191980DEB800101F5F07151F8040C6FF371
:201BBC009F500AE070C9010091980DEB800101F5F07151F8040C6FF3DF5041F8040C8E98A4
:201BDC00022817D19BE8030043464A4607F022FC8846814674B19BE8030041EC100B96986D
:201BFC000BF066FA4146484653EC102B07F012FC884681460FA20CCA4146484610F0DAFBD4
:201C1C0041D08A46969F4AEC109B78420BF050FA919854A20CCA5AEC109B0DEB80045146B9
:201C3C00484610F00AFCD04604F5F07488BF4E4623D803E0000000000000000047A20CCA09
:201C5C0048460BF047FF14F0C9FE16F0FEFD45A20CCA8A4606460BF03DFF0B46024641469D
:201C7C00484607F0D7FB14F0B9FE1837083544F8040B91989697401C91905146304614F07B
:201C9C00ADFE206039E0919895990026401E81420CDC919F95980DEB870101F5EE713F1AD3
:201CBC0051F804097F1E40EA0606F9D176B995984FF001090DEB800000F5EE700168002913
:201CDC007FF46DAE001F09F10109F7E79199969F0DEB8100083D183F00F5F070491E9697FC
:201CFC00001F919106E09199183F083D001F9697491E919101680029F5D09BE8030041ECFC
:201D1C00100B38460BF0D4F991985BEC10ABD94600281ED407460DEBC7040DEB870804F552
:201D3C00A07408F5F0787F1C58F8040916F08DFD4B4652460BF0CEFE08A284E803000CCAA7
:201D5C00494650460BF0C6FE083C894682467F1EEAD1919C002C51D418E0C04600000000D4
:201D7C000000703E0000000000007041000000000000C03F00000000000020400000000089
:201D9C000000E03F000000000000F03FA5EBC40528A8E70005EB0008949E3DA090E8000C3E
:201DBC00002ECDF830A221D4DFF8EC90DDF844A2354600266D1C09F11009AAEB040AB24568
:201DDC0014DBF20002EB090003C850ABD219D2180CCA0BF07FFE02468C980B46594607F0D4
:201DFC001EFB761C8B466D1E8C90E8D1DDF830A2641EA7F10807A8E8000CCDD5919F24A0E9
:201E1C0090E80C00002F10D40DEBC7047F1CA03494E80003194610464B46424607F0FFFAA0
:201E3C00083C7F1E02460B46F2D18E9900290CBF191C83F00041DDF840C2104628AF8CE8CD
:201E5C00030097E8030007F0E5FA024691980B4600280DDD0DF1A80A0746BAE8000310463F
:201E7C004B46424607F0DBFA7F1E02460B46F4D18E9909B183F0004390988D9F08307FB014
:201E9C0080E80C0018B007F00700BDE8F08FC046000000000000000070C901002DE9F04F33
:201EBC00CA4857EC106B0FF2E4293946ADF1540D3D4621F00044A04214DDC548A04203DD30
:201EDC00304614F08BFD50B147EC106B99E8030041EC110B002008F0B7FC57EC106B394660
:201EFC003046ABE2BB48A04205DC30463B46024607F090FAA2E2B848B8460FF2C82AAFA772
:201F1C00A04200F3C980B548A04252DCB448A04200F37081B34AC1F30A5023150227EA461C
:201F3C000005A3F2164B251A3446AD182946204614F054FD16F089FC0B46024629462046E9
:201F5C00AAE80C0007F066FA92A20CCA0BF0C2FD04460D467F1EE9D104A880E8300003254C
:201F7C00044694E8030099E80C0010F023FA1DD0684606A95A462B46FFF7A2FCB8F1000F2B
:201F9C00014606D406A890E8000308AF97E8000C1CE206A890E8000308AF97E8000C4942A5
:201FBC0089F000498BF0004B50460EE2083C6D1ED7E78D48A04238DC8C48A04200F01A815E
:201FDC00B8F1000F75A277A416DC0CCA304607F026FA94E80C000D46064607F020FA89469F
:201FFC0080464B4642462946304607F013FA94E80C0007F014FA15E00CCA304607F00AFA34
:20201C0094E80C000D46064607F004FA894680464B4642462946304607F0FCF994E80C0081
:20203C0007F0F8F982468B46D8E17148A04200F0E180B8F1000F5DA25EA416DC0CCA304667
:20205C0007F0EDF994E80C000D46064607F0E7F9894680464B4642462946304607F0DAF92C
:20207C0094E80C0007F0DBF98CE00CCA304607F0D1F994E80C000D46064607F0CBF98946C7
:20209C0080464B4642462946304607F0C3F994E80C0007F0BFF95AE0D549C4F31300814291
:2020BC0000F0A880D348A04236DCB8F1000FD6A2D7A417DC0CCA4146304607F0B0F994E850
:2020DC000C000D46064607F0AAF9894680464B4629464246304607F09DF994E80C0007F000
:2020FC009EF916E00CCA4146304607F093F994E80C000D46064607F08DF9894680464B4617
:20211C0029464246304607F085F994E80C0007F081F982468B467FE1B8F1000F1ADC97E8A2
:20213C000C004146304607F07AF99AE80C000C46054607F074F9894680464B46214642466C
:20215C00284607F067F99AE80C0007F068F982468B4669E197E80C004146304607F05AF903
:20217C009AE80C000C46054607F054F9894680464B4621464246284607F04CF99AE80C0087
:20219C0007F048F982468B4636E1C0460000000000000000000000000000704100004054F0
:2021BC00FB2119403163621A61B4F03D0000307F7CD91240CA9493A7910EE93D00004054F5
:2021DC00FB21F93F3163621A61B4D03DFC21E93F0000503E0000F07F7B6A0F403C461C4009
:2021FC00FB21394100006041BDFD1540FB2119407CD9124094A20CCA414630460BF06AFCF7
:20221C000FF24C2898E80C0007F009F998E80C0007F000F90B9181460A90884614F0DEFB84
:20223C000C9097E80C00414648460BF053FC0B4602462946304607F0EDF813909AE80C0071
:20225C008B46414648460BF045FC11901398119A12910B46594607F0DDF880460B984B46F0
:20227C0089460146184697E80C000BF033FC0B4602462946304607F0CDF80E910D900B99FF
:20229C000A989AE80C000BF025FC0B4602460E990D9807F0BFF824154800A4EB505010285B
:2022BC0040F387800B990A986BA20CCA0BF012FC8A4605460E990D9853462A4607F0AAF88D
:2022DC008B4613900B990A9865A20CCA0BF002FC0E460746139A0E990D985B4607F09AF88E
:2022FC0053462A4607F096F80B4602463146384607F090F8119012911398129B119A594641
:20231C0007F088F88046894613980E990F9002460D98CDF840B05B4607F07CF853462A46ED
:20233C0007F078F80B4602463146384607F072F802460F980B46594607F06CF84800A4EB1A
:20235C005054322C35DB0B9C0A9D47A20CCA214628460BF0BFFB82461398894659464B4646
:20237C00524607F057F8804641A2CDF84C800CCA8B46284621460BF0ADFB0C4605461099C4
:20239C000F985B46424607F045F84B46524607F041F80B4602462146284607F03BF80B46DB
:2023BC001293024611925946404607F033F889468046139859464B46424607F02BF8129B6B
:2023DC00119A07F027F88B460C99824611F0030104D0491E10D0491E1ED025E049EC108B98
:2023FC004BEC11AB012008F02FFA51EC100B25E0FB2109007DD9024049EC108B4BEC11ABAF
:20241C0008F0DCFAF1E7C04600004054FB2109403163621A61B4E03D49EC108B4BEC11ABF6
:20243C00012008F011FA05E049EC108B4BEC11AB08F0C4FA51EC100B81F0004115B041EC02
:20245C00100BBDE8F08FC04683C8C96D305FE43F00000000000038430000601A61B4D03DD1
:20247C007370032E8A19A33B0000002E8A19A33BC14920259A837B392DE9F04FCA4858EC31
:20249C00107B0FF2DC2B4146ADF1540D464621F00044A04212DDC548A04203DD384614F004
:2024BC009DFA40B148EC107B9BE8030041EC110B08F084FAACE2ACA003C8ABE2BC48A0425C
:2024DC0005DC38464346024606F0A4FFA2E2B948C146B1A50FF2C82AA04200F3C880B64827
:2024FC00A04251DCB548A04200F37281B44AC1F30A50231500056E46A3F21648251A3C463B
:20251C000227AD182946204614F068FA16F09DF90B460246294620460CC606F07BFF94A2F4
:20253C000CCA0BF0D7FA04460D467F1EEAD104A880E830000325044694E803009BE80C0024
:20255C000FF038FF1DD0684606A942462B46FFF7B7F9B9F1000F014606D406A890E800033D
:20257C0008AF97E8000C1FE206A890E8000308AF97E8000C494289F000498BF0004B5046E8
:20259C0011E2083C6D1ED7E78E48A04238DC8E48A04200F01D81B9F1000F77A278A416DCAD
:2025BC000CCA384606F03BFF94E80C000D46064606F035FF894680464B4642462946304697
:2025DC0006F028FF94E80C0006F029FF15E00CCA384606F01FFF94E80C000D46064606F0A2
:2025FC0019FF894680464B4642462946304606F011FF94E80C0006F00DFF82468B46DBE12F
:20261C007248A04200F0E480B9F1000F5EA260A416DC0CCA384606F002FF94E80C000D46D9
:20263C00064606F0FCFE894680464B4642462946304606F0EFFE94E80C0006F0F0FE8CE0F4
:20265C000CCA384606F0E6FE94E80C000D46064606F0E0FE894680464B46424629463046A2
:20267C0006F0D8FE94E80C0006F0D4FE5AE0D949C4F31300814200F0AB80D748A04236DC0B
:20269C00B9F1000FCFA2D1A417DC0CCA4946384606F0C5FE94E80C000D46064606F0BFFE16
:2026BC0080468946424630464B46294606F0B2FE94E80C0006F0B3FE16E00CCA49463846BD
:2026DC0006F0A8FE94E80C000D46064606F0A2FE80468946424630464B46294606F09AFE64
:2026FC0094E80C0006F096FE82468B4682E1B9F1000F1ADC95E80C004946384606F08FFEE8
:20271C009AE80C000C46054606F089FE80468946424628464B46214606F07CFE9AE80C0074
:20273C0006F07DFE82468B466BE195E80C004946384606F06FFE9AE80C000C46054606F00D
:20275C0069FE80468946424628464B46214606F061FE9AE80C0006F05DFE82468B463DE188
:20277C000000000000000000000000000000F03F000000000000704100004054FB21194054
:20279C003163621A61B4F03D0000307F7CD91240CA9493A7910EE93D00004054FB21F93F30
:2027BC003163621A61B4D03DFC21E93F9EA0463E0000F07F7B6A0F403C461C40FB213941AD
:2027DC0000006041BDFD1540FB2119407CD9124093A20CCA494638460BF07CF90FF2482818
:2027FC0098E80C0006F01BFE98E80C0006F012FE0B9181460A90884614F0F0F80C9095E8C0
:20281C000C00414648460BF065F90B4602463146384606F0FFFD13909AE80C008B46414619
:20283C0048460BF057F911901398119A12910B46594606F0EFFD80460B984B468946014627
:20285C00184695E80C000BF045F90B4602463146384606F0DFFD0E910D900B990A989AE8D8
:20287C000C000BF037F90B4602460E990D9806F0D1FD24154800A4EB5050102840F387803A
:20289C000B990A986AA20CCA0BF024F98A4605460E990D9853462A4606F0BCFD8B46139049
:2028BC000B990A9864A20CCA0BF014F90E460746139A0E990D985B4606F0ACFD53462A46EF
:2028DC0006F0A8FD0B4602463146384606F0A2FD119012911398129B119A594606F09AFDAB
:2028FC008046894613980E990F9002460D98CDF840B05B4606F08EFD53462A4606F08AFDEC
:20291C000B4602463146384606F084FD02460F980B46594606F07EFD4800A4EB5054322C6D
:20293C0035DB0B9C0A9D46A20CCA214628460BF0D1F882461398894659464B46524606F0C6
:20295C0069FD804640A2CDF84C800CCA8B46284621460BF0BFF80C46054610990F985B4600
:20297C00424606F057FD4B46524606F053FD0B4602462146284606F04DFD0B46129302460E
:20299C0011925946404606F045FD89468046139859464B46424606F03DFD129B119A06F0A5
:2029BC0039FD8B460C99824611F0030104D0491E14D0491E1ED024E049EC108B4BEC11AB47
:2029DC0076E5C04600004054FB2109403163621A61B4E03DFB2109007DD9024049EC108BB2
:2029FC004BEC11AB012007F02FFF51EC100B81F000410FE049EC108B4BEC11AB07F0DEFFF2
:202A1C00F3E749EC108B4BEC11AB012007F01CFF51EC100B15B041EC100BBDE8F08FC0463B
:202A3C0083C8C96D305FE43F00000000000038430000601A61B4D03D7370032E8A19A33B9B
:202A5C000000002E8A19A33BC14920259A837B392DE9FE4F04460020009000250CB915F03F
:202A7C00A5FF04F1500841F62300D8F8007038807D8002223A737A73694620460CF01AFC15
:202A9C0008B9072051E2009901B1B860B8682061DFF89C04017884F8B810D8F80400407A39
:202ABC0014F01AF925302076207EB873FD73D8F80400017D022904BF002015F077FFD8F814
:202ADC000400007D012802D10020002104E083280CBF0620022020213874797404F1240681
:202AFC00DFF850A4DAF83C0041690868717901EB41010844B0F801207A82D8F80400417811
:202B1C0048060AD5607DC10604D5E07F40F04000E07702E040F04000607507F15C0904F150
:202B3C00300089F80050B17E890001F0040189F80010B866607DC10656D5D8F8042051788F
:202B5C008A060CD500F0FE006075D8F80400417811F0030F03D1E07F00F0FE00E077607D30
:202B7C0018F04EFAA075421C387CC0F38001002392B200F0030018F03FFAA0831E20A28B65
:202B9C0002F59B7393FBF0F01E2101FB1030C0B208B1C0F11E00821802F59B7262831E2070
:202BBC00A28B02F5967293B293FBF0F001FB1030A283C0B208B1C0F11E008018A08380B2D2
:202BDC00E27D618B521E50434018608307F13005608BB43080003866062089F80300E17F2C
:202BFC0041F00801E17720E040F001006075D8F804104A78510744BF40F002006075607D3C
:202C1C0018F0FEF9A0750023401C82B2387CC0F3800100F0030018F0EFF9A083A08B00F5C3
:202C3C009670A0833D6689F80350A17D207D61F3050007F18801207508700322607D48707C
:202C5C008A70B07E800000F0040040F003008870F27ED20002F00802104388700020C870B0
:202C7C00C7F89000B08BC0F30B00B083D8F80410CA7D40EA0230B0830022617D01F0FE0113
:202C9C0020460BF0B9FD019700271EE01C2010FB07F004EB000B01991C220BF1640017F0CD
:202CBC003DF90BF16C00052101717F1CA28B92000260FFB2DAF83C104A691168737903EB31
:202CDC0043031944B1F801204281E07D401E8742DCDB019F20460FF0F3FBE07D012809D01B
:202CFC0013D3032808D03EBF04F164007860C8F818500AE07D6008E004F16400786004F1A4
:202D1C008001C8F81810C8F8345041F6240038860021798607F13C05B868618B00EB810000
:202D3C00B8630221822028706970002194F82100E97000F03F00A870D8F80400807D0128BE
:202D5C0018BF022803D100F07F00401E04E083280CBF062002202021287169714FF0000B15
:202D7C00DAF83C0041690868727902EB42021044B0F80110E980C7F86CB0D8F80400417815
:202D9C0011F0030F20D018F033F9F866DAF818000078C107DAF8181009784CBF1F200F2064
:202DBC008A07DAF81810097848BF40F020004A07DAF81810097848BF40F040000A0748BF39
:202DDC0040F0800089F8140089F815B0D8F80410594A897C01F0030189F81510B07E800077
:202DFC0000F00400014389F81510F07EC00000F00800014341F0100189F81510107838B116
:202E1C0099F8140000F0FE0041F0400189F8140089F81510E07F18F0F3F884F82000204602
:202E3C0018F0E2F8E07FC10636D5D8F8040094F820204178521C88074EBFD21EF07F121877
:202E5C002879C0F380010023D2B200F0030018F0D3F830801E22308800F59670C0F11E01A1
:202E7C0090FBF2F21E2000FB02113171D8F804104878810731884CBF00204FF49B70401823
:202E9C0030807080B86B318832795218A63200EB82007867022002E0C7F874B0002089F8D9
:202EBC00170004F13000C7F8800007F18400D8F804104A78510707D504F13802026099F803
:202EDC00150040F0200007E01C490A685168016099F8150000F0DF0089F81500A17F94F8E2
:202EFC00200060F30501A17740F60B002882A5F812B0DAF83800008880007865DAF83800E2
:202F1C00008800B1072028770220687794F84510E983D8F804004178880744BF0121E9839B
:202F3C00009808B10BF016FB0020BDE8FE8F00BF9F540020DCD50100880E00206C0F0020F1
:202F5C002DE9FC47D44C0F460546F80B80F006826078DFF85883B90F80F0AA81B90880F023
:202F7C009D81F90A80F00281390B80F0CC80380907D2F80FC0F0288227F0804710F0D4FEF6
:202F9C0022E217F0D3FB814616F07EFA002800F0B480082017F088FA002840F0AE808020D4
:202FBC0017F082FA002840F0A88068460EF02CFA012803D10098002800F09F8094F8410285
:202FDC00002840F09A8000250126E8B216F088FF48B1837A3BB1867290F9090006FA00F094
:202FFC00C0B215F011F96D1C032DEED3032084F8200004F5CC7017F091FB484617F0F0FFAF
:20301C00D34800252A460168056050F8081CD14940F8085C04F15C0016F046F94046006870
:20303C00006B8047A168401A010BA06AC1F1FF3282422CBF08444FF0FF30A06294F82C00C3
:20305C0020B12069A16AB1EBC02F25D916F02CFA294600B13146081C1BD0BF4840F609014D
:20307C0001804580417B06F00F0221F00F010A434273017B05F00F0321F00F0143EA010234
:20309C0002732946416017F0CDF8418811F4406FFBD084F82C60A56213F0F0FACE482946FA
:2030BC000560022015F07EFF022015F021FA11200CF0E8FA207818B96068483017F07AFB75
:2030DC00C648007810B90E200CF0DCFA94F82D0020B184F82D50052015F00AFAC04860620A
:2030FC0084F82050B4F9B000B4F9B210884214BF022007200FF026FA02E0484617F070FF11
:20311C0027F008073AE720B1042015F0F1F900206070656814F060FE38B12846ED696FF439
:20313C00807100224FF00073A847E06858B140460068006B8047E2686168801AC860000B6E
:20315C00C8600026E660A74904F15C00002216F0ABF80221D4F89C0084F8201018B104F1BE
:20317C00DC0017F039FB27F4006707E717F0DEFA064616F089F9D4F894100028894600F0A2
:20319C008480002900F081809749042504F15C00002284F8205016F087F8304617F020FF6C
:2031BC0004F5CC7017F0BAFA40460068006B8047E0604FF0010884F80180284615F0B0F942
:2031DC00D9F810006060D9F81000416AC90803D3036A294600229847404611F0BFFC606818
:2031FC0080F8158060680CF043FD6568D5F808A040F60A02D01F564600F1010C00E01E4651
:20321C00736833B119888A4203D0884218BF8C45F5D100217160727B08F00F0322F00F024F
:20323C0013437373D9F80C201288904224D06046904221D02B8E03B3696305F1300251803C
:20325C0095F83C0001F00F0320F00F00034385F83C3095F83D0008F00F0320F00F000343FF
:20327C0085F83D307260707B01F00F0520F00F0045EA0001717300E0E160504616F0D2FFC5
:20329C005146404615F08EFE02E0304617F0A8FE27F4806798E0C046201B002008F068F82C
:2032BC00D4F89C0008B927F002078DE08C0100104E4A116841F08001116020B1042015F071
:2032DC0017F90020607017F031FA8246D8F85400016804208847D0B1287DC0B1A068B0B158
:2032FC008146D8F800002E69006B8047A0EB09002861000B2861B04202D280194008286171
:20331C0040F6C41181422CBFB0F5967F2961504617F066FE14F060FD80B1EE6928466FF4D9
:20333C00807100224FF00073B047D4F89400002808BF47F0020701D010F0F6FC2846AD69DF
:20335C0000214FF080630A46A84727F000573BE01410044035500100A053002017F0E6F95F
:20337C00D4F8AC6066B306F1280106C90A234FF0E0450B40154008BF002B21D106F128011C
:20339C0091E8000306F1280595E8060006F1280322EA090221EA080183E8060017F020FE0B
:2033BC00B16879B1B9F1000F08BFB8F1000F09D03069B6F93010B5684B464246A84701E00F
:2033DC0017F00EFE27F4804727B104F1DC00394617F002FABDE8FC87000004607AD40100D6
:2033FC0095E30000F9D4000085940100CC2108402DE9F84FDFF85854A9780024FF2904BF0D
:20341C00002015F0D3FAA87816F01AFD054605F1680605F5C9773168086805F1900808B128
:20343C00EC8311E0B07B002804BFB07E00280BD198F80010002904BF3878002804D1287FE8
:20345C00012804BF688CE8832989E88B4118491C6981284617F0C0FD01281EBFDFF8F40332
:20347C000178012903D12989EC83491C69814FF6FF79B07E01280DD1B28B6989288917F070
:20349C00A7FD38B1298968894A1C93B298422FD0B08B23E098F8000001280FD1B8F80220B3
:2034BC006989288917F094FD40B1298968894A1C93B298421CD0B8F802000FE03878012836
:2034DC0016D17A886989288917F082FD80B1298968894A1C93B298420AD0788892B2904275
:2034FC0006D04844688180B217F06EFD4844E883387801280FD128897988401C80B2884207
:20351C0009DB7C793C71022038702346A979224600200BF039FD05F59A71087920B12889F3
:20353C000021401CE9836881B07E012813D12989B08B4B1C9BB298420DD1688117F044FDD8
:20355C00804605F12E008188308C01FB080828460FF03CFA03E005F12E01B1F80480EA8B47
:20357C00DFF8F492501C00FB08F040F6C41808FB00F100912B68D3F80CE07144D960B74BA2
:20359C00196809788909032940F0168199F80F30B349DB0740F10081B5F812C000230CFB7F
:2035BC0000FC4FF4C87EBCFBFEFC0CF1010C0B80A861C5F814C085F820204FF01C0BDFF890
:2035DC00A4A2AB79DAF8000000F108021BFB03F3D1582A68116100F10801AB79D268686936
:2035FC001BFB03F3121ACA50DAF80000AB7900F108021BFB03F3D1582A68916000F10C02B5
:20361C00A9791BFB01F10C30535C03F0F00343F002034354DAF80010AB798A1C1BFB03F30C
:20363C000021D152387908B915F0C0F9DAF80000AA7900F1100138791BFB02F24008885424
:20365C00A879DAF800101BFB00F00844002141743879042814D1A879DAF800101BFB00F058
:20367C0001F110021031135C3A7A43EA82030B54AA79DAF800001BFB02F20244202050746C
:20369C00DAF80010A87901F112021BFB00F0002111527549A8790A6802F114034FEA401C8B
:2036BC00143253F80C00AB79D5F814C05B0100EB4C00D050B07E02280DD10A68AE7902F117
:2036DC001403760114329859AB7995F82E605B0118FB0600D05005F12E0299F80F00C307A5
:2036FC0073D5DAF80000AE7900F108041BFB06F60830A359AC791BFB04F4A3F5A863035100
:20371C00DAF80000AE7900F108041BFB06F6A3592C68A36000981B1A23610868AE7900F119
:20373C00140476011430A359AC79640103F5F6630351387904280BD10868AE7900F1140416
:20375C0076011430A359AC79640103F5616303510868AC7900F1140364011859C5F8340197
:20377C00424B186B0C68AE799288006804EB461742436424B2FBF4F408FB04F0A0F5966090
:20379C00F8613B480278012A48D10868A97900EB41120120D07248E00B885B1C1FFA83FC76
:2037BC00BCF1010F11BFB5F812C005F59A7EBEF806C00CF2DC5CF2E6698A41434FF4C87350
:2037DC00B1FBF3FC0CF1010CF2E6042C0BD10868AE7900F1140476011430A359AC79640163
:2037FC0003F56163035138790B68AE7904280CBF4FF4AA504FF4E66003F114047601A35916
:20381C00181A938808FB03F3A3F516739842A7D30821284615F01CFA012016E0586A0968D5
:20383C00AA79407801EB4213D872A879DAF800102A681BFB00FB01EB0B00506007210D483C
:20385C00017028460FF0A0FF0020BDE8F28F00BF780E0020D10F0020980C00203C0F0020F5
:20387C0092540020980E00209C0E0020DCD50100CC0F0020C80F00202DE9FE4F0546DFF86D
:20389C002404DFF824640278002A4CD0052A73D0062A00F08080072A18BF082A00F0F78092
:2038BC000A2A00F0D381112A02D0132A70D0F1E1DFF8F8331878002117F0EEFB04001EBF94
:2038DC00606D407810F00C0F2DD0216DC0064CBF886CC86E0622016801F10805A91C6846A3
:2038FC0016F01CFB287800F00F0105291BD145096946C0F3801017F063FB002813D031688C
:20391C00684617F059FB0746316804F1380017F053FB87420DD0606D4178C80604D440F216
:20393C00014017F045FBBBE1607B40F002006073B6E133681E2010FB07F698190622694667
:20395C00C01D16F0EBFA606D4178C806F0D5A17B0129EDD1DFF858038178480605D5E90723
:20397C0003D4206D41F20A4102E0206D41F2044141804183418693E116F00CFF0028FAD19E
:20399C000FF0CAFE012802D0012017F00DFB87E10EF0EFFA84E1DFF81C53286817F000FB8D
:2039BC000400F7D020790328F4D1207A00F00F01072937D1C04800684169497A4A1E11422D
:2039DC005ED0617A04F10A035A5C02F03F02252A56DBA17A8A09012A52D111F03F0F4FD0ED
:2039FC00007C16F02DFAE17ACA074CBF04F1110204F10B028B0748BF921D0B0748BF921CB2
:203A1C00C90648BFD21C1621127852094A43AB498B180A31EB608A5A428699898186DA89C8
:203A3C00C2862DE000F00F00082829D1A17A880926D129B3A0480168087C16F001FAE17A3C
:203A5C00074688071CD5062201F001015143601800F10C01684616F061FA207AC009FF28BF
:203A7C000ED0694617F0ACFA50B1306800F10D01684617F091FA18B90521384615F0E8F8BE
:203A9C002079032802D0002014F090FFFEE0DFF830B29BF802000024FF281BD016F0D0F990
:203ABC00804608F16C09D9F8040017F079FA2A460179032901D011000CD08368197801F026
:203ADC0003008D06009003D50124009818B9BAE01000FAD0E4E05D7803F1020A34B31AF838
:203AFC00010B784B01902C2098F806C01F6810FB0CFC67444FF0010E87F805E0002A1F6800
:203B1C0098F806E007F11A0C019F10FB0EFE07F01F070CF80E7098F806701B6810FB07F014
:203B3C001844019BC3F38113C3761AD10098032808F217171AD0ADB199F8000068B108F12D
:203B5C00F4000278012A0DD1564B1A78072A04D0082A04BFC078012804D13D217970012007
:203B7C0038709DE0584A1378012BFAD098F8940070B32D1FEDB253462A4640460EF028FEFC
:203B9C0000281EBF51490878002807D13D21797001203870306817F0FBF981E04C480168E9
:203BBC008847064698F80610DBF804204FF4D07041435018002280F8412108F59E70016852
:203BDC00807949080FF0EAF842490A68304690470098032819D04048416909788A0708D587
:203BFC0041690878C1074CBFE81C28461AF8000000E0812089F808002A460098C3B29BF80E
:203C1C000200514606F092FF1DE09AF800001CB11B2804BF022D01251C2803D22F490B5CB9
:203C3C009D4205D0B8700721404617F019FA0AE01C48017808295146404602D116F070FD69
:203C5C0001E000F079FAD9F8040020E0244C207830B3244D286817F0A3F908B3017903293F
:203C7C001ED1017A8A0611D5807AE178C0F38112914202BF217900F01F00814206D1A078C0
:203C9C00002801BF607800280121A170286817F07BF905E0002014F089FE862017F0F8F9B4
:203CBC00BDE8F78FC80F0020680F0020D50F0020C00C0020BC0A0020540F0020E0070020CF
:203CDC00780E00201C540020D20F0020A4540020EC290020F0290020DCD5010074D601000E
:203CFC00C8530020AC0C00202DE9F04F0F46380589B018D5DFF8EC532888FF280ED0C0B24B
:203D1C0016F09EF8040009D0A079162117F038F9204616F08BF8204617F02EF9FF2028803C
:203D3C0087F40060DAE1F80508D5022016F02EFD08B10BF028F987F48070CFE1B80604D51D
:203D5C0013F03DF987F02000C8E1F8070CD516F051FA30B100218160DFF88C03006800B13B
:203D7C00804787F00100B9E1380704D513F0C3FC87F00800B2E1F8060FD50021002200231A
:203D9C000691059204910393029101920091022017F0EEF887F01000A0E1B8070FD500211C
:203DBC000023069105910491039302910191009101223C2017F0DCF887F002008EE17907F4
:203DDC004FF01E08C94EDFF828A340F1CD80C9480022002108920791007817F05DF9044686
:203DFC00C5488178FF2904BF002014F0DFFDA07A16F026F805469AF8000095F82E91002827
:203E1C0005F5947B69D0606D807A022818BF032807D130680D3017F0A7F810B93068C11DBF
:203E3C0007915946484617F0CBF8A0B3606D807C3368002818BF012804D11946584617F01F
:203E5C00BBF804E05A464946184617F04DF9FF2843D018FB00F83068404406225946C01DD0
:203E7C0016F05CF8306810F80810404400F1010BC01D41F0020908900622616DC87A00F0BA
:203E9C00010085F82E01606D00F10C0105F5947016F044F821E05946484617F061F8E0B12F
:203EBC0030685A46494617F01FF9FF2815D018FB00F8306840440D3017F056F858B9306892
:203EDC0040440D3017F050F8002801BF30684044417F012901D149F0020905F12C004B46FF
:203EFC00017806914289120905920122698C0491C0880899029140080390CDF800B0079801
:203F1C0001900020A97917F033F8D5F89C017B498842A8790CBF0021012117F01DF878487D
:203F3C00AB7902682C214B43134401221A73AB7904684B4323445A73AB7904684B4323441E
:203F5C009A73AB7904684B432344DA73AB79006811FB03F10144002008740720A97909F0B7
:203F7C003EFC87F00400B9E038060FD5002100230691059104910393029101910091012240
:203F9C003B2016F0F5FF87F08000A7E0F8045DD55C4930680C680D3016F0E6FF002844D1EE
:203FBC003068C11D0D3016F0D3FF3EE0606D4178480704F13E0526D5287802281EBF032862
:203FDC006878012830D16978306804F1380217F08BF88146B9F1FF0F15D0306818FB09F978
:203FFC0048440D3016F0C0FF68B930684844C11D0D3016F0ADFF30684844C11D062204F1E6
:20401C00380015F08BFF2878022818BF03280BD130680D3016F0A8FF30B93068C11D06220C
:20403C0004F1300015F07AFF2468002CBED13648DAF8042000784FF4805112F019FF10B19F
:20405C008E2016F081FF87F4805047E0B80505D516F0D0F92D4901200860FEE7780504D5FE
:20407C0015F091FC87F4806038E0780405D5812016F06AFF87F4804030E0B9042DD5244C3F
:20409C00206810B1002014F091FC4FF0FF3020600020204C0EF046FE216851F8202F68467F
:2040BC0090471D494A6B086BC96A24681B4B019200900293ADF810106B46194A19491A4805
:2040DC0003921A4A07922568194AA8471949086004F0EAFE87F4005000E0002009B0BDE884
:2040FC00F08F00BF10300020480F0020680F0020880E0020D70F0020780E00204DE5011053
:20411C001C5400204C0F0020C70F00207C052043380F0020200F0020842A0020F1A1010087
:20413C0001A20100B42E0020280800201EFB0080EC0A00201C0F00202DE9F043044685B0AB
:20415C00084611F801CBDFF8A483DFF8A4332C22BCF1030F4FF0000904F5A47704F16605AB
:20417C0004F1F40600F0C380BCF1070F00F08081BCF10F0F0CD0BCF1110F00F02481BCF197
:20419C001A0F00F03681BCF11B0F00F061818EE1707A820703D40F2184F8191159E0087842
:2041BC004A7800EB02233B808878CA7800EB02237B8008794A7900EB0223BB808879CA7936
:2041DC0000EB0223FB80087A38724A7A887A02EB00237B81C87A0A7B00EB0223BB81487B64
:2041FC008A7B00EB0223FB81C87B0A7C00EB02233B82487C8A7C00EB02237B82C87C0A7DDA
:20421C0000EB0223BB82487D897D00EB0122B948FA8201788A0658BF4FF01A0913D504F57C
:20423C00AA70049079890391387A029021890191F8880090BB887A883988204616F080FE9E
:20425C00C8B14FF01E09707A410706D40F2084F81901204616F070FEF0E04A460F212046C2
:20427C0016F066FEF8880090BB887A88A179484611F0F8FBE9E004F1860079888180BA883F
:20429C00C2800222F98801810270A0F80290A18EC91DE983628E8188B1EB520F02BFC1887C
:2042BC00A28E914202BF0089E18EB0EB111F1CD0287C012804BF687C0F2809D0687D0028DE
:2042DC001CBF687C1A2803D00F21A976FE2176E0FC21204616F0C4FEF8880090BB887A888A
:2042FC003988A07916F020FEAFE0102167E0707AC20709D431781A200129707002D1FF222C
:20431C000D213BE00D215AE085F8009085F8069001233371082204F1B00016F001FE0146CD
:20433C00022204F1B80016F0FBFD04F1A80801460822404616F0F4FD07460821404616F0FD
:20435C00EBFD04F19C0804223946404616F0E8FD0421404616F0E0FD04F1A00016F0D8FDAC
:20437C0004F1980016F0D0FD6348018841F0800101803078012805D1FF220421204616F001
:20439C00BFFD62E06E7C0F2E18BF142E04D00E2E1CBF0C2E1A2E11D12F7C204616F0ACFDB4
:2043BC000421204616F05CFE012F05D11A2EAE7614BFFD21FB2102E0314600E004212046B3
:2043DC0016F04EFE41E00E783E761A2E497879766DD11868A679411C564301F80690196839
:2043FC00A37912FB03F20A4482F80490A179787E56E0A77918680E785743074406F01F01C0
:20441C0017F8210FB60938B17878F040C00703D594F89601042805D120221A21204616F0CC
:20443C0087FD12E0F970A179186812FB01F28118204681F82360002116F0AEF928B998F8AD
:20445C0000004FF480410AF06BFE4FF0010932E0A179186851430144C88808B981F80190F0
:20447C00A179186812FB01F2811881F80490ECE709780F2917D01A2919D1A1791868514312
:20449C0001441A2081F80190A1791B6812FB01F2991881F80490F17A01F0FB01F172A17947
:2044BC000DF0ACFDD1E7717A01F0FD0171720146204616F01DFD687C1A2812D1A87C17288C
:2044DC001CBF1028FC280CD12E7C204616F014FD012E03BF1A20A876FB211A21204616F079
:2044FC00BFFD484605B0BDE8F08300BFC70F00201C540020200E00209C0F00202DE9F84FCE
:20451C000422FF21684615F013FDDFF88C63B0780024FF2800F0BE8115F092FC0546B07808
:20453C0015F040FE064605F217100178012908BF417800F0008105F1740005F5927A817BB2
:20455C00022904BF05F174018C7395F89201022805F1740008BF85F89241017F022904BFAE
:20457C0005F174010C77BAF80E1019B19AF80C000AF0D6FD6889C94F288105F58D7BBA7A44
:20459C00F879397B80184118F87A0818797B00EB0109BBF80400BBF80010401CABF80400F1
:2045BC004944BBF80200ABF800101018ABF80200DAF80000F0B1BA4995F806E00B681C2184
:2045DC0003F10E0C11FB0EFE0E331CF80E1030F811C0CC4420F811C01C2195F806C011FB98
:2045FC000CFC13F80C3000EB4300B0F84A105218A0F84A2013F04CFFF879002804BFF87A98
:20461C00002805D1387B002804BF787B002840D0F481A046F07EC00910D0307F00F007019E
:20463C00022907DA00F0F802401C00F007001043307703E0A879002112F01CF92989E889BC
:20465C002C744118287FA981012804BF688CE883A9790122072009F0C2F8787805F17406AA
:20467C0058B101212977B078002804BFB07B002803D1307F08B9688CE8839AF8140000287C
:20469C0062D0022804BFF87A002858D18AF814405AE0A9790022072009F0A1F8EC83317FF0
:2046BC0011F0070F02D1F07EC00903D0A879002112F0E0F8B87A38B1287F01284FF001089B
:2046DC0027D1688CE88324E0BBF80600401CABF806004FF00208287CD8B172490868AB79E0
:2046FC0095F82E6000F1140268694FEA400C40F6C4105B0110FB06CC0CF5F660D0500968FB
:20471C00A87901EB4010C17C01F0F00141F00401C174A8892989814206D088429DD2081ABF
:20473C0041F2AB02904298DA287C08B1052901D0082100E03E21284614F08AFAAAE0787A03
:20475C0010B102218AF81410F87BC1070DD538692968C86000F59070C86052480168A879FB
:20477C0001F114024001145014E04E48AB79026802F114015B01C858CAF810004848AB794E
:20479C0001681C2001F108024343D0582968C860EC832C77444A50690078810702D5B87B92
:2047BC00802800D181203070404991F8200018B12946012015F0E6FF28460BF013FB02280D
:2047DC001BD1F079022805DB6A463949284610F035F90446284616F087FB01285AD02000DD
:2047FC000DD022466946284610F0DCFD38B928460BF0F8FA012802D14CE001284AD0012189
:20481C00284616F06DFBFEF7F3FD012842D028460EF031FE00F0F8FB264F3868002839D0BC
:20483C00B888AA7990421CBF4FF6FD71884231D12148007B15F01EFD04002BD084F80080CE
:20485C00A8791E4960800A68A879115C217105F5C9721079607196F90010A171A4F80890CE
:20487C00BBF80200608115F0C5FC050005D1FF204FF0FF312073216109E02878207316F020
:20489C002BFB0146A86816F023FB80082061204639688847BDE8F18F780E0020980C0020ED
:2048BC00980E00209C0E0020DCD50100B0510020EC2F0020800E0020C42E002034540020D6
:2048DC002DE9F84FDFF894030278112A03D0122A00F0BE81C0E1DFF888331878002116F014
:2048FC00DBFB05000AD1002014F060F8002014F05DF8BDE8F24FFF2016F0CABB05F14C0A15
:20491C009AF8000008B90121E972401CDAF808108AF800004A78D106DCD4E97DDAF80470EE
:20493C00C2B28A424FF00008D4D305F1280407F1900907F17306C34640F08C80A87F7075B8
:20495C00E97FB175DAF808205278930710D5EA7FD30604D5C01E707501F0EF01B175C7F8C6
:20497C0074B086F800800022B17D01F0FE016AE1910608D4E08B00B1E07E3076E08B00B1BF
:20499C00206AC9F80000DAF808004178CA070DD5E08B00281CBF206A002807D0C9F80000B2
:2049BC00A17EE08B814238BF08463076E87FC1060CD5B86B217800EB8100B863B86BA98CF9
:2049DC00A63100EB81007867022002E0C7F874B000203070DAF80800417811F0030F22D159
:2049FC00007815F0D5FE5FEA00081CD098F8B000032809D1E87F810615D440F02000E87743
:204A1C00B07D40F020000DE068B9E87F81060AD500F0DF00E877707DA0F112017175B07D50
:204A3C0000F0DF00B075E97F002201F0FC01284609F0E2FEB8F1000F36D0E87F810633D5F3
:204A5C0098F8B00002282FD141462846BDE8F44F15F0A6BEE87F81060AD500F0DF00E8778F
:204A7C00707DA0F112017175B07D00F0DF00B075DAF808004178C80717D5B07D717D00F029
:204A9C00F700891E01F03F0182075CBF891D40F00200420644BF491E00F0BF00B075717543
:204ABC00C9F800B086F81880D6E09AF80020E87D121AD2B28907009240F18280012A07F15E
:204ADC0040083FD1B86BA98C00EB8100B863A87F00F03F00A8777075E97FB175DAF80820A1
:204AFC0053785A0703D5801F707501F0FD01B1750023707DE17E00F03F00421898F8000075
:204B1C00521CC0F3800192B200F0030016F074FA00F59B70A8841E21A88C90FBF1F18AB2E4
:204B3C00B17D01F0FE01284609F066FE86F800B0E08B00B1E07E3076E08B00B1206AC9F8BB
:204B5C00000089E0B86BA98C022A00EB8100B86326D1E87FC10706D5707D811F7175B07D24
:204B7C0000F0FE00B0750023707DE17E00F03F00421898F80000521CC0F3800192B200F0A8
:204B9C00030016F039FA00F59B70A8840022B17D01F0FE01284609F02FFE607FA8F81A0024
:204BBC00617F0098491C081AC0B201281CDDB96BAA8CA63201EB820179670221317014E00D
:204BDC00B86BA98C00EB8100B863617F0098081AE97FCA06C0B207D5B96BAA8CA63201EB9C
:204BFC008201796702213170B0B395F81F80A97FD9F80020E37E1A44C9F8002028F0010809
:204C1C00DAF808205278530748BF28F00208920748BF28F00808012807D1207F3076C7F864
:204C3C0074B028F0100886F800B001F0C004404616F0E6F900F03F002043707586F816802B
:204C5C00002208F0FC012846BDE8F84F09F0D4BDBDE8F14F0EF0FBBFBDE8F18FC80F002084
:204C7C00D50F00202DE9F041FF2806462AD115F0F1FB10F01F0F22D0042013F059F808B11D
:204C9C00042016E0012013F053F808B1012010E0022013F04DF808B102200AE0102013F043
:204CBC0047F808B1102004E0082013F041F820B10820BDE8F04113F08DBA13F077FE0020B7
:204CDC00BDE8F08113F086FA8046012ED8F8044046F2A81740F6C4100BD0022E5DD0042EAB
:204CFC0000F0AB80082E00F0F380102E00F04281E5E7DFF8000301688F88102013F018F88A
:204D1C00E8B1102013F066FA05466E6846B9022013F00EF820B1022013F05CFA05466E6893
:204D3C00012013F005F840B1B068A0EB8701A06814F03AFB08B94046C2E72846C0E70220B2
:204D5C0012F0F6FF90B1022013F044FA06460120756812F0EDFF38B1A868A0EB8701A06850
:204D7C0014F022FB0028E6D03046A9E7042012F0DFFF08B10420E7E7082012F0D9FF30B180
:204D9C00082013F027FA4168002999D1D3E7012012F0CEFF002893D0CDE797490A68974954
:204DBC00D3690A7802EB82029E18F7884743042012F0BEFF07F5166788B1042013F00AFA29
:204DDC0006460220756812F0B3FF0028CCD0A868C11BA06814F0E8FA0028C5D1ABE70820A2
:204DFC0012F0A6FFD8B1082013F0F4F905466E6846B9012012F09CFF20B1012013F0EAF999
:204E1C0005466E68022012F093FF002895D0B068C11BA06814F0C8FA00288ED18BE7012036
:204E3C0012F086FF08B10120C8E7102012F080FF08B11020A5E70220AAE771490A68714987
:204E5C0053690A7803EB0216B7894743082012F06FFF07F5166780B1082013F0BBF90546BC
:204E7C006E6846B9012012F063FF20B1012013F0B1F905466E680420C5E7012012F058FFB2
:204E9C0028B1012013F0A6F9064604209AE7102012F04EFF80B1102013F09CF905466E68D0
:204EBC0046B9022012F044FF20B1022013F092F905466E680420A6E7022012F039FF28B1E8
:204EDC00022013F087F9064604207BE704205FE715F05AFC08B1D0F89070042012F028FFAC
:204EFC0058B1042013F076F906460820756812F01FFF002818BF002C68E7012012F018FFD2
:204F1C0060B1012013F066F90646082012F010FF002818BF002C3FF427AF0CE7102012F003
:204F3C0007FFA8B1102013F055F905466E6846B9022012F0FDFE20B1022013F04BF90546B1
:204F5C006E68082012F0F4FE002818BF002C5DE7022012F0EDFE58B1022013F03BF9064617
:204F7C000820756812F0E4FE002818BF002C2DE708200DE7032015F009FC08B1D0F898701B
:204F9C00022012F0D5FE50B1022013F023F90646102012F0CDFE002818BF002CBBE7042082
:204FBC0012F0C6FE28B1042013F014F90646102008E7082012F0BCFE80B1082013F00AF954
:204FDC0005466E6846B9012012F0B2FE20B1012013F000F905466E68102014E7012012F065
:204FFC00A7FE28B1012013F0F5F806461020E9E61020CDE630540020500F0020D80F0020AE
:20501C00540F0020D90F00202DE9FE4FDFF818536F681FB9BDE8F74F15F056BF3878DFF809
:20503C000CB3C34EDFF80C83012818BF02280AD004281CBF0828102805D0402818BF8028EF
:20505C0000F0A78069E115F00BFA0028FAD0012012F06EFE20B1012013F0BCF812F014FE8B
:20507C00082012F065FE20B1082013F0B3F812F00BFE3878FFF7F6FD814698F80100D9F813
:20509C000440002850D006F0C7F814F0D9FE8246DAF80000009047689AF8060088F80300E4
:2050BC00BCB10099484608F09BFB022811D099F80010012902D0082965D02EE128B915F0AF
:2050DC000BFF00F5E8504C30A0600120A87011215CE00098017880290BD10820964930701D
:2050FC000A787869012A1ABFDBF824100978012114E0072030709AF8060015F053F8044696
:20511C00207BC10748BF9AF8060067D48A480178786901291CBFDBF824104978C1729AF878
:20513C00060088F80200BFE0B9F1000F11D099F800004F4509D1012818BF082801D134BBA2
:20515C00F0E0002013F032FC21E0012802D0082817D0E2E0002CF3D015F0BEFE0146A0683E
:20517C0001F5C241A83114F01FF928B915F0B4FE00F5E8504C30A060112030700121A970D8
:20519C0005E0002CDCD00820A870122131704846BFE098F80100002800F0888006F03CF81A
:2051BC0014F04EFE8146D9F800000090D0F804A098F8020014F044FE019099F8060088F86F
:2051DC0003003978402913D199F8060014F0EAFF0446207BC1070BD599F8060014F030FED8
:2051FC00052113F035FD207B00F0FE00207399E015F030F910F01F0F32D0012012F098FD8D
:20521C0020B1012012F0E6FF12F03EFD082012F08FFD20B1082012F0DDFF12F035FDA8787B
:20523C00FFF720FD07467C68D4B1009908F0D8FA022815D03978012902D008290BD00CE072
:20525C0028B915F049FE00F5E8504C30A06011203070012156E0082057E0002013F0A6FB10
:20527C000198484520D0009933480A78802A0BD10821317000780128DAF814001ABFDBF8E3
:20529C002410097801210AE00722327000780128DAF814000EBF0121DBF824104978C172F5
:2052BC0099F8060088F80200009832E015F0D2F810F01F0F36D0012012F03AFD20B10120C0
:2052DC0012F088FF12F0E0FC082012F031FD20B1082012F07FFF12F0D7FCA878FFF7C2FCD1
:2052FC00074638787C68012802D008280CD019E0C4B115F0F1FD00F5E8504C30A06001217E
:20531C0011203070A97003E064B1A870122131703846BDE8FE4F08F04BBEBDE8FE4F002020
:20533C0013F044BBBDE8F78FE0530020DCD50100C80F0020780E0020CC0F00202DE9F84F2A
:20535C0005004ED0DFF8E48298F80000092818BF0A2804D00B281CBF0C280D2801D12120A9
:20537C0062E1A878002115F097FE040008BF4220F6D0AF4FA978DFF8BCA2397098F8000073
:20539C0010B9A8788AF8000004F14806F068417801F01201022902BF706900280C2012D033
:2053BC00607AF0B1A07B012804D1B5F8030008B1812816DA6878402813DA204615F080FD1E
:2053DC00B06808B907202FE1B561287801281FD1A07B00281CBF0128042819D1964800781F
:2053FC0008B9122020E195494A78824208BF0920F8D0F068417848070AD504F1220180208A
:20541C004A7F04F1380107F001FB08B10B200BE1687808B9112007E12878DFF82492DFF8F8
:20543C0024B2012840F0AF8000212173F166217A012903D1B16968794871F4E00120002183
:20545C002072E172617325460AF0B4FB6060DBF8000080477C4A0146106802E06A6842602E
:20547C0000680028FAD10846D9F8001088476968764848610021387815F07CF93978012260
:20549C00112008F0ACF9F0684178C80605D5284601F0E6FA010024D0C6E0688C10F036FB6A
:2054BC0085F82100F068007815F072F904001CBF94F8B000002807D0E87F40F02000E877C2
:2054DC00687D40F0180068752846FDF7C1FA0100E2D134B194F8B000012804BF284615F055
:2054FC005DF9F0684178C8071CD505F14204A18800291CBF3068002814D022788A4211D213
:20551C000F2015F0D9FC68B1F06801788DF800100F20A288ADF8012021788DF803106946E8
:20553C0015F0C6FC98F80000A0B94949087800281EBFF068417811F0030F03D0454800689C
:20555C0015F0B2FC112088F8000001212972FFF75BFD68E0284612F009FE00281CBFB168E5
:20557C00002960D0AA7B012A04D02A69808802EB800202E0486E2A69821895F8B810104618
:20559C000AF058FF4FE0207A00284CD0DBF80010884705463878012115F0ECF800202E4942
:2055BC0020720A683E7811460B68187A002802BF586D0378B3421FD0C9689142F4D1387833
:2055DC009AF80010884224D114F014FE616888421FD112F05DFF40F2014015F0E9FC1F4992
:2055FC001F4A204808600121107809F099FDD9F800102846884716E01B4E30780128DEDD14
:20561C00084612F025FB14F02DFE3078411E3170D5E7204615F044FCD9F8001028468847A2
:20563C00204612F03BF90020BDE8F28FC80F0020D60F0020D50F0020D40F0020780E0020C3
:20565C00F0290020EC2900204C0F002095970000880E00206C0F002030540020480F0020AD
:20567C00C70F0020B15F0000A15400202DE9F043A24CA349A34E20700A22002008600D236B
:20569C00A14840F2222102704380818085B09F4A9F48106037789F480770FF2F7178417010
:2056BC0008BFFF29B2788270F378C370357905717679467114D1FF2A08BFFF2B10D1FF2D4F
:2056DC0008BFFF2E0CD194490A7802704B7843708A788270CB78C3700A79027149794171C2
:2056FC008E4902788E4D8F4E8F4F0A7043784B7082788A70C378CB7002790A7140798B4AC9
:20571C004871FF2028706870A870E87028716871002087490880F06B8649407808708649A2
:20573C00F06B007808701388844885490380F06BC06C08608349F06B90F83C00087082492D
:20575C00F06B90F83D0008708049F06B90F860000870F06B406901797D484A1E0270F06B99
:20577C007C49C0783870F06B8069086008B913F01DF9F06B7849C069086008B913F016F962
:20579C00F06B416D75480C2214F0C8FB15F084FBF06B7349006A086008B913F007F9F06BA6
:2057BC00DFF8C081406AC8F8000008B913F0FEF8F06B6D49806A086008B913F0F7F8F06B20
:2057DC006A49C06D002840D001220A75F06BC06D02681378C3F3400048B1F06BC06D026895
:2057FC001378C3F3C00000280CBF01200220487500208860C8600861F06BC06D42689078C6
:20581C000870F06BC06D4268D0784870F06BC06D426813788B70F06BC06D42685078C870D8
:20583C00F06BC06D426810790871F06BC06D426850794871F06BC06D426890798871F06BD5
:20585C00C06D4268D079C87101E000220A7501F09DFC07280AD107F069F920784FF48041C8
:20587C0009F05EFC002013F0A1F843E040480168884781460EF068F8D8F8000001688847ED
:20589C00684614F069FBD8F8002004208DF80000694652F8043F002098473649086010F01B
:2058BC009FFBF068344A01883878344B014311804846196888470C21314814F075FF284665
:2058DC0015F0E6FA15F0E0FA2E4800214FF6FF7201608280F06B90F858102B48006814F00E
:2058FC0059FC0121FF2014F045FF20784FF4005109F016FC05B0BDE8F08300BFC70F0020F5
:20591C00380F0020D04F0050700E00203C0F0020B63F0050400E0020E8120050500E002011
:20593C00480E0020DCD50100C40F0020123000209E0F0020C60F0020D40F00209054002005
:20595C0024540020A2540020A3540020A0540020CB0F0020200F0020240F0020D45300206F
:20597C00280F00202C0F0020300F002040530020EC29002028540020A00F0020F02900206E
:20599C00FC0D0020800E00203C5400202DE9F04FBE48BF492DED058A4FF0010B08EE100AFD
:2059BC00BE48F7EE009AADF1300D0AEE101A00F5076500F58E64B94800684FF0FF3115F024
:2059DC005FFA4FF48077284618EE101A7F1E40F8041BF9D1002216460721002306F00100FC
:2059FC0088407610491E0344F8D59A4211DA90009F002158E35900EE101A235010EE106A14
:205A1C00E6512B58E95900EE103A295010EE100AE851521CB2F5807FDDDBB0EE4A0A13F0AB
:205A3C00F3F989EE800A4FF4807721462846D1ED000A60EE200A10EE902AD0ED000A60EE41
:205A5C00200A41F8042B10EE902A7F1E40F8042BEDD14FF000080BFA08F08146400000EEE5
:205A7C00100AB8EEC00A10EE100A12F025FA02460B4688A003C806F09DFE0E46074641EC5C
:205A9C00100BFCF7F9FC51EC100B0EF072F809EE100A3146384641EC100BFCF7FFF951ECB1
:205ABC00100B0EF066F84FEA490AB0EE691AF0EE480ACC464FF0000E00EE100A7146B1F5B2
:205ADC00807F36DA4FEA89068800AB191A5802EE102AA219175802EE907A60EE821A51EE9E
:205AFC00221A60EEA28A41EE028A071997ED002A32EE612A12EE107A1750471997ED002AA1
:205B1C0032EE682A12EE102A07191A5097ED002A71EE821A11EE902A4319D3ED001A5144C6
:205B3C0078EEA11A225011EE902AB1F5807F2A50CADB60EE200A59EE010ABCF1010C0EF1B6
:205B5C00010EB0EE601AF0EE680AB7D108F10108B8F1080FFFF67FAF2646A8464FF48077B1
:205B7C00D6ED000A58F8040B00EE100A20EE000A00EEA00A13F048F910EE100A7F1E46F8EE
:205B9C00040BEDD10AA84FF4007106F025F9802721460A9851F8042B7F1E40F8042BF9D1AC
:205BBC000327ADF1080018EE101A7F1E40F8081F80ED018AF7D14FF0060E4FF0000CBCF1C2
:205BDC00020F5CDC00270A99B0EE480A384651F8042B00EE902AF4EEC00AF1EE10FAC4BFF0
:205BFC00B0EE600A071C401C4028F0DB7FB14FEACC0000EE907A0DEB000686ED010AF8EE40
:205C1C00E00A10EE901A0CF1010C40F80D10B8000A9918EE102A3F2F425015DA2318C7F1FA
:205C3C003F0693ED000AD3ED010AF4EEC00AF1EE10FA09D20A46761E03F10403024400F128
:205C5C00040082ED018AECD1002F15DDBB00E018001F90ED010AD0ED000AF4EEC00AF1EEA0
:205C7C0010FA09D20A467F1EA0F104001A44A3F1040302ED018AECD1BEF1010E9FD10AA891
:205C9C000DF004F9684611F055FD94E60000000000008043182D4454FB21194038300020D6
:205CBC002DE9FE4F0D46074628687C68BE6800283AD014F03BFDD4F8F81081460120019070
:205CDC0008294FF0000088BF0198A968084202D16968084205D0019880F00100C0B2012895
:205CFC001DD1D4F8D000B8B9C4F8D050C4F8D4500020C4F8E0000146C4F8E41094F80C3155
:205D1C00C4F8E810002BC4F8EC100CBF01980520D4F8D410087411E094F8080138B9032081
:205D3C002874484615F05CF90020BDE8FE8FD4F8D4004561C4F8D45006232B74D4F8D400E3
:205D5C000021416194F80C01012809D1022294F80B318E49E06984F80C21194311F0BCFDFD
:205D7C00686810F0704F06D128B1042012F0D8FB062012F0D5FB022012F0D2FB94F8080151
:205D9C00DFF80C82002840F08F80F0692968884240F28A8094F80C01002840F0858094F8A9
:205DBC00090120B1D4F8FC00B0F1FF3F7CD1484615F016F9A868B24600280CBF04F5827769
:205DDC00071C6868031C0CBF04F583761E1CD4F8F80009282CBF4FF0020BDDF804B0DAF817
:205DFC000000D5F800904168B9F1000F41F00201416008BF191C32D04146A1F11008D4F8F8
:205E1C00F810092910D3D8F800104A6831889047D8F80000C168DAF800000A466946904786
:205E3C00BDF8000038800FE0D8F800104A6831789047D8F80000C168DAF800000A4669460E
:205E5C0090479DF800003870AB6803B15F44696801B15E44DAF80000B9F10109CFD1D4F891
:205E7C000051C36800221D4218BF019A102D18BF82F00102002AF4D111F0704F06D129B1AE
:205E9C00062012F035FB042012F032FB022012F02FFBD4F8D010002008740746C4F8D47058
:205EBC003E46C4F8D0606EE0D4F8E800002843D1D4F8EC00002842D1307914F039FC4546B8
:205EDC00D4F8DC002A68316940685268006891FAA1F1B1FA81F1134602229847D4F8DC00CA
:205EFC002A68716940685268006891FAA1F1B1FA81F1134602229847307914F013FC307955
:205F1C0014F018FC2046314604F06EFA0021D4F8D000C4F8F0100068B0F5806F03D920465D
:205F3C00314604F061FA94F80E0160B93168486840F00200486006E0D4F8EC0018B92046D3
:205F5C00314604F051FA3168486940F001004861484615F045F894F80801A0B9D4F8FC10B5
:205F7C0004F17C05284614F059F860B1D4F8D00003210174384604F07BF92846002114F00D
:205F9C004DF8002001900198BDE8FE8F00000780D40100102DE9F84FDFF8A09299F80000C1
:205FBC00002115F079F8040004F1500602D112F0FDFC33E1207A08B9002140E0217B491C60
:205FDC0021733069407920B1C9B2814208BF432135D004F14508002088F8070014F0F7FAA2
:205FFC007168D1F80320D4F810C022F07F4240F6C41303FB02CC4FF00B0E90FBFEFE0B226C
:20601C0002FB1E00376880B24FF47A6148431CFA80F0B86033688A4899682161336902683B
:20603C00B3F8030000281FBF706E0028A37B012B0CD0938801EB8301814207D33C21204679
:20605C0010F06CFEBDE8F14FFEF7DEBF7D4D2878022809DBD068016810680969006913F0D4
:20607C00A3F908B10EF0A2F870684178CA0604F122071BD5A07B01280CD100212172287833
:20609C0010B1204614F00CFF6F480078022109F047F8AEE0306890F8631001F0E00141F000
:2060BC00860180F8631069494166A2E0356805F1020A0021AAF8001005F1730B407A10F0D7
:2060DC000BFE25302076207E8AF80C0020460CF0F7F9207D8BF815000020617D8BF8161056
:2060FC008BF81800C5F890003888401C388080B20FF00CFD84F821007068417811F0030F4D
:20611C0042D1007814F044FB00283DD000F1B0010878032806D1E27F930603D442F0200217
:20613C00E27731E001280ED1E07F40F02000E077607D40F0180060752046FCF789FC20468D
:20615C0014F02CFB20E008B10879E8B1E07F00F0DF00E077B068002804BFF068002810D13C
:20617C007068007D83280CD0617D03280A4607D0C80648BF01F0EF02100748BF02F0F70237
:20619C0062752046FCF764FC617D002201F0FE01204608F031FB0020AAF8300005F13E00B3
:2061BC0094F8211001F03F010170A968628B01EB8201A9630021018298F8002082837168B9
:2061DC004A78910709D5BA887A80A17F01F03F0141F08001A17701218183E07FC10608D5EB
:2061FC00A86B7988A63100EB8100686702218BF80010174A107888B1387F022818BF0328A2
:20621C000CD1144F38680D3014F0AEFE30B93868C11D062204F1300013F080FEFEF7F4FE79
:20623C004CB17068017E480605D54946BDE8F44F032014F03DBEBDE8F18F00BFD50F002045
:20625C0030540020A1540020C70F002000204E00880E0020680F00202DE9FE4F01200190A3
:20627C00A24EA348A34F0278112A02D0122A0DD036E1A14C2078002114F00EFF9F49054694
:20629C00087810B100220A70F2E0002D00F01B819B48DFF87082DFF87092386001222178A1
:2062BC00112007F09CFA286D696D009141F60802009B96495C78E30640F1DC80044641F286
:2062DC000443B4F802C09C451FBFB4F81AE09E45B4F832C09C454FF4A05A1CD095F80EC0A2
:2062FC00BCF1010F04BFB5F89EE09E4513D0B4F802E041F20A439E451FBFB4F81AB09B45EC
:20631C00B4F832E09E4506D0BCF1010F04BFB5F89EC09C4503D13380C7F800803DE0002378
:20633C0040F2FE3B4FF0180C0CFB03FCA444BCF802E0A6F800E0BEF1010FF3D0BEF1000F31
:20635C0055D0AEF1020EBEF1010F50D9BEEB0B0E1AD04FF48063BEEB030359D04FF4406BCD
:20637C00B3EB0B0343D09B1E012B40D91B1F3ED040F2FA3BB3EB0B036FD05B1E61D0D81E0A
:20639C0046D0001F44D06DE0B4F800C040F6010EF4452CD15B1C022BC4DD3868404525D104
:2063BC00A06C0168A06C026810790831032804BF94F86C00012811D1D1F80E0000281CBF49
:2063DC00088B00280AD091F8220010F0E00F05D101F11E0014F050FD012870D0A6F800A094
:2063FC00C7F80090A06C01680020087167E0A87B01281CBF0428A6F800A0C7F80090087D78
:20641C000028CAD08868401C002288600A82C4E7A87B012806BF41F20243ACF80230ACF80E
:20643C0002A03088904215D1CA68088A4D8A521CCA60401C82B2AA4238BF2A464A820882C2
:20645C0008E000994A78D1064CBF816CC16E086800210171C7F800909FE7002012F0A6FA45
:20647C00832003E0002012F0A1FA842014F010FE012038E0438E41F204455C1B1CD0A41F5B
:20649C001AD03380408890420CD1CA68088A4C8A521CCA60401C82B2A24238BF22464A82FB
:2064BC00088206E0087D20B18868401C002288600A8241F20643C846C7F80080338001217A
:2064DC001348007809E014F05FF958B1C08811490F4A308039600121107808F021FE01E099
:2064FC00002001900198BDE8FE8F00BF9A0F0020C80F0020480F0020D50F0020A5540020F1
:20651C00756B0210950B0000B15F000040530020C70F0020EB1D0100F8B5144600254FF49C
:20653C008067DFF89862C21B84B006F18C0334D0921E39D0521E47D0521E52D0521E58D082
:20655C00521E5CD0521E00F08280921E00F08480D21E00F0B480521E00F0BF80921E00F02A
:20657C00C880521E00F08380521E00F0C980521E00F0D780521E00F0DA80521E46D0521E44
:20659C005ED0521E53D0921E00F0E580921E00F0E980521E00F0F48003E1012915D12078B0
:2065BC00022822DC707006E101290ED1207802281BDA012804BFF178032900F0FB800028FC
:2065DC00B070F0D17574E7E0012940F0E880207805280ADA0328F0700AD10020B070707419
:2065FC00DAE001296CD12078022880F2D8807073E1E0102964D110222146714814E0012950
:20661C005ED12078022863DA3071D4E0012957D1207802285CDA00287071F6D00120B0747D
:20663C00602206F12C01184613F078FCC3E00129FCD12078022802DAB07113F0E3FDBAE0ED
:20665C0001293DD12078022842DAF072B3E0012936D12078B073AEE0002931D114F0E4FC8A
:20667C0010B9F9F714FF1DE001207075A3E0072926D10622611C02A813F02EFA0095002353
:20669C00217801AA02A809F065FCB0B9F07A10B914F0CAFC10B1F07A012808D19DF804006A
:2066BC00F9F706FF0546502012F02EFF1EE0716A9DF80420012088547DE034257BE0012915
:2066DC006DD1317C2078022903D0C11F0A2902D365E0102863D1F0736DE001295FD1317DCC
:2066FC0020783075002908BF012864D1F9F75CFE61E0012953D12078032850DCF0745AE08D
:20671C0001294CD12078022849DC002847D03074022803BF1020F0730120002014F0A8FBE5
:20673C0049E001293BD1207813F01AF843E07079002834D1602908D1002C30D06022214681
:20675C00184613F0EBFB012003E0012927D134B32078B0742FE0012921D104B32078194931
:20677C00087028E0D9B914F05FFC30B9F9F735FF0546502012F0C8FE1DE00120B0751AE0BF
:20679C0001290CD12178022909DA012904BFB07800280FD07174084613F03CFD0BE018257C
:2067BC0009E00F2806DA022904D1218810F0A8FC054600E00225284605B0F0BDF028002016
:2067DC0004520020A85400202DE9F04FDFF84C9204460D460020ADF1440D01461F460D900C
:2067FC0016460E9183460F91D9F808A0CDF840B00BF06EFF262803D00BF06AFF252825D1BB
:20681C00308843F6070181420ED040F60201814206D0B0F5C15F19D1F07B022816DD43E096
:20683C00F07B022812DD3FE096F8240002280DDD307C0F2838D13169C1F31421B1F5803FFF
:20685C0004D00F2830D1B1F5A02F2DD1002D2BD056B328784FF0010808FA00F01AEA000F7F
:20687C0022D03046594613F09DFF65606C4DA660A86980B110A800900DA90EAA0FAB3046AA
:20689C0007F0AAF80E980B214FF6FF72502312F0A3F9FF2808D013F049FF824628780228CE
:2068BC0004DB504614F09CFB5C46B2E000286DD103F010FF5B495C4E086840F002000860B8
:2068DC0009A8C9F8006013F0DDFC584E5849707809AA0B9005F1DC000FF014FA554905F5FA
:2068FC008C7009AA0FF00EFA09A813F023FC192109AB3078504A0A9005F15C0010F060FE79
:20691C004E4A05F178001A2109AB10F059FE4C495A4605F5AA70134610F072FB49495A46CE
