:20000000003C01203138010039FB021039FB021039FB021039FB021039FB021039FB021075
:1C00200039FB021039FB021039FB021039FB021039FB021039FB021011FB021002
:20003C0038B586B004468DF805104FF6FF720120ADF80220090ADFF8545AADF8000002239D
:20005C008DF806108DF8043069462A78204619F077F8162803D12978204619F06DF807B0C3
:20007C0030BD3EB504000D461ED0DFF8240A0068224619F05DF8FF2815D00020009000232D
:20009C0001AA294620460EF0CDF860B99DF8040000F075F9C00606D59DF8040000F06FF95F
:2000BC0010F0040000D001203EBDFEB5164615244FF6FF7290420D4615D100208DF8040082
:2000DC00DFF8C8799DF80400F97988421AD23246294600F03AF800B100249DF80400401C58
:2000FC008DF80400EEE719F01FF850B100F0A2FB40B99DF804003246294600F026F800242D
:20011C0000E014242046FEBD7CB50D46044606214C43164600F080F8A8B900F078F890B938
:20013C009DF80700002E14BF054320EA0505E9B2814206D08DF807506A460821A0B216F069
:20015C004BFE012076BD002076BD2DE9FC410646344606235C438846154600F05DF800281C
:20017C0052D100F054F800284ED1DFF82079387A800018F093F8040002D100F02BFA43E079
:20019C00397AE03689062246090EB0B216F010FE002835D1204600F058F85FEA08000ED1F2
:2001BC003A7A9206120E0021204617F07DFA38BB3A7A92000021204617F0DEFE16E02146B2
:2001DC0000F030F858B9280004D02146002000F029F810B900F0DDFB16E0A0F800808178AE
:2001FC00A9420DD085700DB900210180204600F02CF8397A89062246090EB0B216F0ECFD32
:20021C0000F0C7FB012000E00020BDE8F6810622FF21684617F048BA20346A460821A0B255
:20023C0016F0C6BD70B5DFF864381D7A002200E0521CD4B2AC4206D231F824608642F7D1F1
:20025C0001EB840070BD002070BD10B50021DFF83C280AE030F82130DB4320F8213000EBA2
:20027C008103491C9C78E4439C70137A9942F1DB10BD2DE9FE4FDFF814480646207A0F4660
:20029C0091469B46800018F009F85FEA000803D100F0A0F90A206CE00C9D0297B246062776
:2002BC0017FB0AF7029A07F12000082100F064F88DF80400304600F09FF8227A9200FF2112
:2002DC00404617F059FE9DF804000090E036217A89064246090EB0B216F07EFD009E0299FA
:2002FC000643206A082200EBCA0017F03BFEBDB10299887900232A4600F0010018F010FF4B
:20031C0000281CBF9DF93C00002803D0DFF884170120087007F123002A4600F02CF80643FE
:20033C005FEA090205D007F121001C2100F024F806435FEA0B0205D007F122001C2100F05B
:20035C001BF806430D9A62B107F1240000F013F8054625370EAA0421B8B216F03DFD0543DE
:20037C002E43207D08B100F09AFA404617F09EFFF0B2BDE8FE8F102180B216F02DBDE0B530
:20039C000623584320306A46082180B216F010FD10B99DF807000EBD00200EBDDFF8EC062B
:2003BC00007808210DF024B838B50025DFF8DC4619E0206A062313FB05F300EBC5022033E5
:2003DC00082198B216F0F4FC58B1206A0622FF2100EBC50017F0D0FD206A00EBC5010022DC
:2003FC00CA716D1CEDB2E1798D42E2DB207D10B1BDE8314053E231BDF8B5DFF89016DFF800
:20041C009836C9791E680C460A4600E02A46D5B23DB1551ED2B2324412F8017C8742F5D140
:20043C002C46E4B220464D1E07E01718165C7F7817541A680244401C5670A8421A68F4DBB8
:20045C00AC4204DABDE8F840052016F0C5BCF1BD70B50024DFF8345600E0641CE879E3B27D
:20047C0083420BD22B6AE6B20622FF2103EBC60017F01AF90028F0D0E0B270BDDFF81C26BB
:20049C00117819B1DFF810060168087870BD38B500200024DFF8F45503E0E0B200F008F834
:2004BC00641CEA79E1B2914201D20100F5D032BD2DE9F84F83465D46062313FB05F58EB017
:2004DC0005F1200701AA0821B8B216F071FC002873D10622FF2101A817F0E6F800286CD18B
:2004FC00DFF8A865307A800017F0D8FE5FEA000903D100F06FF80A2061E01C22FF2103A804
:20051C0017F03AFD327A9200FF21484617F034FD05F123040AAA1021A0B216F049FC60B9A5
:20053C001022FF210AA817F0BFF830B99DF80A0001A900F0010018F0EFFD082200F042F872
:20055C0001AA0821B8B216F047FC8DF8000003AA05F1210000F03AF8074605F1220003AA7B
:20057C0000F034F8804603AA1021A0B216F034FC044605F1240003AA102100F028F88246FD
:20059C00253503AA0421A8B248EA070716F024FC2743317A9DF800504AEA0707074389063E
:2005BC000BF1E0034A46090E98B216F015FC0743484617F07BFE3D4300E0002528460FB02E
:2005DC00BDE8F08FFF2101A817F0D6BC1C2180B216F002BC042016F021BA2DE9F84187B0BB
:2005FC00FF208DF80000DFF8A454E87917F056FE040003D1FFF7EEFF0A2030E01022FF2169
:20061C0003A817F0B9FCEA79FF21204617F0B4FC0622FFF7D7FF03AA1021022016F0DCFBE6
:20063C00064603AA1021032016F0D6FB06436A460121042016F0D0FB0746E979224605202E
:20065C0016F0CAFB054601AA0621062016F0C4FB804600F09EF93E432E4348EA060008B07C
:20067C00BDE8F081DFF824144088097816F014BBF0B5A9B006460D46144618F055FD08B909
:20069C001420ACE0A4220021684617F075FCADF800600DF12607DFF8F463F078B17B8DF8FA
:2006BC000400F07B8DF8A000279861F30000B17B27908A074CBF0222002220F0020010434D
:2006DC002790CA064CBF4FF48072002220F48070104327908A064CBF4FF40072002220F481
:2006FC000070104327904A064CBF4FF48062002220F480601043279049074CBF0421002123
:20071C0020F0040008432790307C02280CBF01200020787418F0FCFC412807DB307C00B131
:20073C0008209DF8991008438DF89900B07CB8B10121B974202206F18C010DF1390017F0E6
:20075C0011FC202206F1AC010DF1590017F00AFC202206F1CC010DF1790017F003FC00E0C3
:20077C00B874707B8DF8050090B1DFF83473102207F110010DF1060017F0F4FB9DF899009A
:20079C00082805D1102239460DF1160017F0EAFB307B8DF8260030B11022DFF808130DF12D
:2007BC00270017F0DFFB307948B1022D18BF032D03D1279840F002002790012100E000219E
:2007DC009DF899000143B0788DF8991000B1042001438DF899106846214618F095FC29B067
:2007FC00F0BD2DE9FC41154615244FF6FF72904288460DD10027A54EF179F8B2884216D235
:20081C002A464146FFF780FC00B100247F1CF3E718F08AFC50B100F00DF840B99DF80400F3
:20083C002A464146FFF770FC002400E014242046BDE8F681002100910023417901AA01F05A
:20085C000101801D0DF0EEBC70B504460D4606204543082B88B0164603D1300758BF223586
:20087C0000D521351C220021FFF7ADFE01AA1C21A8B216F09DFA80B99DF81E00C01F0A2855
:20089C000BD29DF830000090F20801AB02F0010206F00101204618F033FC08B070BD38B508
:2008BC0018F02AFC0024794D0FE0286A0622FF2100EBC40016F0F8FE28B9286A00EBC4016D
:2008DC00002018F015FC641CE4B2E8798442ECDB31BD3EB50C46002501460095002301AABD
:2008FC0020460DF09FFC38B99DF80400FFF747FDC00601D401203EBD00203EBD2DE9F04101
:20091C00694F3C6806468846154603E02089B04224D02468002CF9D10C2017F0BFFC040004
:20093C0019D0268184F80A8000202060E07245B10821284616F0B6FF606018B900F029F829
:20095C000AE06060396811B93C6004E0014608680028FBD10C600CB9152018E018F0C4FB16
:20097C0008B1002013E00120E0722A4641463046FFF77EFE04464548C06900281CBF43688F
:20099C00002B03D000220021304698472046BDE8F081204617F08ABC38B505464248046848
:2009BC0003E02089A84204D02468002CF9D1012032BDE07A012807D100F05CF820B1334854
:2009DC00007804210CF014FDE17A491CE1722846C9B200F002F8002032BD38B502290446FA
:2009FC002A4D02D003290DD01EE042F6C921FFF717FB02001CBFE869002818D04368B3B114
:200A1C0005210CE042F6A621FFF70AFB01001CBFE96900290BD04B684BB1024604212046FA
:200A3C0001B0BDE830401847BDE8324000E031BD10B51D4A1468002101E0214624686CB1D6
:200A5C0023898342F9D1206800290CBF10600860606808B117F02AFCFFF79BFF002010BDC0
:200A7C00024604201049096819B10B899342FAD1C87A70470C48006828B1006818B1C17A2C
:200A9C000029FAD17047002070470000F0280020680F0020A950002040500020A850002008
:200ABC00F44D0020244E0020445000202DE9F04385B0064600208946009090461C46B179C8
:200ADC00002304AA30460DF0ADFB20B1FFF7C0FC8DF810001BE0D4B19DF8103006204343F5
:200AFC0023336A46102198B216F062F978B91022FF21684616F0D8FD48B9B079314600F05B
:200B1C00010018F009FB10B1194901200870194F9DF81000F979884227D201200390009466
:200B3C0043460C980D990E9D019002914A469DF810003146FFF79DFB044655B1397A9DF825
:200B5C0010008906E0302A46090E80B216F044F90443200005D09DF81000FFF7A9FCFFF75C
:200B7C0023FC204605B0BDE8F0831520FAE700BFA9500020F02800202DE9F84F012015F05E
:200B9C005DFB012816D1DFF898663078002118F0A7FA040004BF002015F040FF00202072AD
:200BBC00201D0EF03BFA05F037FE050003D1812018F092FA30E301206871DFF86826DFF828
:200BDC0068064178491C4170A879A0724020317811700DF057F92860616D4A78206DD10636
:200BFC0020D5816C0A681179032908D0816C0868007903280CBF0120002015F00FFF206D4A
:200C1C00816C0A6890F86C0002F1080701281CBF002015F003FF216D486F296800F5B0605D
:200C3C00C8604AE0C16E0A681179032908D0C16E0868007903280CBF0120002015F0EEFED7
:200C5C00206DC16E0A6890F8980002F1080701281CBF002015F0E2FE226DB5F87401D2F8A4
:200C7C00A0102A68DFF8C435DFF8C465D16097F82690B9F1030F1BD8DFE809F002050E113B
:200C9C0001F5B06101E001F53471D16005F59A711888088718880EE001F5355101E001F66E
:200CBC00B871D16005F59A7130880887308802E001F5B061D160A5F8740106222868DFF8FF
:200CDC007465C168DFF8708501F59071C160B91C3878C0F3801085F82E0105F5947017F099
:200CFC0041F9042207F10E0105F1240017F03AF9306895F8069000F10C03042207F10E0135
:200D1C0003EB491017F02EF93068AB7900EB4313032207F1120103F1100017F023F905F1F8
:200D3C002C09787D89F80200022207F1160105F1300017F017F9022207F1180105F132001D
:200D5C0017F010F9022207F11A0105F1340017F009F9B9F808006884022207F11C0105F129
:200D7C00360017F0FFF899F80200B9F80A10400089F802000901B9F80400A9F80A10400048
:200D9C00A9F8040089B2B9F806004000A9F8060003046A8C521CDB0B5A438A4201D280B2FA
:200DBC0030B998F8000080210CF022FB3B2133E105F12E01284618F08BF90520A8814FF0C8
:200DDC001C0A284618F080F9052207F11E0105F1610017F0C7F897F82300400989F800000B
:200DFC0018F06EF9688205F59A72618D401AD08005F1610197F82300DFF8407400F01F003C
:200E1C0089F80F00284618F057F9616D4A78206DD1064CBF816CC16E41F62102086800215A
:200E3C000171A97938681AFB01F142520021AB791AFB03F303445980AA791AFB02F21044D7
:200E5C004160616DDFF8F8034A78D1060DD5DFF8F4138A7851060AD5DFF8EC23138841F2F0
:200E7C000A418B4208BFDFF8E403C5F89C01D5F89C11284688473A68A97902F10E031AFBCB
:200E9C0001F15854AA7938681AFB02F202440020D0733968A87901F10E021AFB00F0115CED
:200EBC0089F80D10606D4178CA061DD595F8960108B915F0B3FDA97938681AFB01F1014488
:200EDC0095F89601421E0A74A87939681AFB00F00844002141743A68A97902F112001AFB2D
:200EFC0001F1002242522BE0A97938681AFB01F10144206D90F840200A74A87939681AFB4B
:200F1C0000F00844216D91F841204274206D3968AB79403001F112021AFB03F34188D1528C
:200F3C0005F5CB710078012200F0030082400A70226D92F84000800814BF01200220087125
:200F5C003968A879DFF808B301F1140231681AFB00F301EB4010D050A87939681AFB00F055
:200F7C000844BC498161DBF814000078C107DBF8141009784CBF1F200F208A07DBF8141082
:200F9C00097848BF40F020004A07DBF81410097848BF40F040000A073168AA7901EB42130F
:200FBC0048BF40F080001872A979306800EB41120B2050723168AA7901EB42100421A64AE0
:200FDC0081721078012806D13168A87901EB40120121D17207E0DBF824003168AA794078CB
:200FFC0001EB4213D8723168A87901EB40121F2111763068AA7900EB421100204876A87993
:20101C000CF084FEAA79316852018850AA7931685201885820B90721284615F051FEFBE0C2
:20103C008E48AA79016801EB021018F041F8A87931688A4B01EB4012196801EB00105060F9
:20105C00A979306800EB41125168C9F83C10AA7952018158C9F84410042198F800000CF0A1
:20107C00C7F9616D4A783868D10648BF02210AD4A9791AFB01F101440A7C02F00302022A6E
:20109C0014BF04210621B9F8042095F806C04FF4C8738A18698AAA615143B1FBF3F35B1C32
:2010BC006B611AFB0CFCD5F800E06044DEF80CC040F6C41101FB02C2D21AA2F5A8628260FE
:2010DC00AA7938681AFB02F283189A682B689A6000F10C03AA791AFB02F20C309B5C03F0AC
:2010FC00EF038354A8793A681AFB00F002F10C030C321B5C03F07F031354A8793A681AFBD8
:20111C0000F002F10C030C321B5C03F0F00343F002031354AB7938681AFB03F31844427B9F
:20113C0002F0F00242F001024273AA7938681AFB02F2024490682B6818613068AB7999F862
:20115C0002C000F11402686940005B0111FB0C0000F5F660D05095F8960104280DD13068F4
:20117C00AA7900F114034FEA421C143053F80C20AB795B0102F56162C2503068AA7900F1DE
:20119C0014034FEA421C53F80C20C5F83421AA7900EB4210C37C03F0F00343F00403C37406
:2011BC00DBF830003268AB79006802EB431CB9F8062042436423B2FBF3F35943A1F59661FF
:2011DC00CCF81C103068A97900EB4110C27E02F0F00242F00402C276A97938682A681AFB10
:2011FC0001FA00EB0A01516028460E2117F05CFF1B4907200870204614F0BAFB19488178B6
:20121C00880704D5AA790021204617F049FF28681549164A41618261BDE8F14F02F02CBEBD
:20123C00D50F0020D70F0020780E00208E0F0020900F00209C0E0020C70F0020980E0020E0
:20125C0081010210C00C00209A0F00204DE50110C8B40100980C0020CC0F0020A40E0020D8
:20127C00C80F0020200E0020BDBD0000020480802DE9F84F054688B0A978DFF83C660027EC
:20129C0010294FF0060A3CD8DFE811F0110012031203120312033C00CF00120312037502BD
:2012BC0015010001C70212034B028D020A036878002826D117F0F0FE044617F0E9FE0546BD
:2012DC0017F0E2FE8DF8000022461021022015F083FD2A461021032015F07EFD6A46012130
:2012FC00042015F079FD9DF80000012818BF032807D1012017F0C4FE02460621062015F017
:20131C006BFDD5E268780028FBD195F80CB06C8900900023E97801AA01F00101281D0CF08D
:20133C0081FF00284FF0010875D19DF80400FFF726F88146BBF1080F307A08BFB846800035
:20135C0016F0ACFF050003D1042015F067FBAFE270789DF8041002280CBF01200020009074
:20137C005B464A462046FFF76FFA1422002102A816F002FE9DF804001AFB00F0243002AAB6
:20139C00102180B215F014FDB0B91022FF2102A816F08AF980B99DF804001AFB00FA0AF1EE
:2013BC00250306AA042198B215F002FD02AA09F00101204617F060FE317A9DF80400890681
:2013DC00E0302A46090E80B215F0F2FC98B92846FEF73BFFBA4609E005EB8000018819B19B
:2013FC008278204615F0B4FF0AF1010A317A5FFA8AF08842F0D3B07A30B95FEA897003D57B
:20141C003178204615F048FC9DF80400FEF7F4FF284616F04BFF7078022805D1B8F1000F79
:20143C0002D0204611F076FC42E2A888FFF700FB17F01EFE0028F7D1707D012808D1FFF7A8
:20145C0026F8706A77750422002116F095FD17E0B07D012803D1FFF7C0F8B77510E000249E
:20147C000AE0706AE5B2415D012904D1E0B2FFF71FF8716A4F55641CE0B2F1798842F0D331
:20149C00502016F065F8FEF78FFF11E217F02CFE00280CD0F06900281CBF0468002C07D0E7
:2014BC00286900906B7B2A7B6989E81CA047FEE168890121F1E168780024002840F01A81CC
:2014DC00A879C10740F116810822002105A816F053FDA88817F028FE040076D06F694FB370
:2014FC000622002107F1110016F0DEF868B306220021384616F0D8F8D0B9387C00F00108B4
:20151C004FF0000909F1010987F811900020009000230022414607F111000CF083FE002819
:20153C005FFA89F002D10028ECD101E000280CD1002068610622607900F001008DF81A00A5
:20155C00A11D05A816F00EFD1FE06F69EFB1387C00F001008DF81A00062207F1110105A859
:20157C0016F000FD6079012805D10622A11D04F10C0016F0F7FC062207F11101A01D16F09F
:20159C00F1FC387C40F002006071A879410720794CBF40F0020000F0FD002071A9790A079B
:2015BC0054BF00F0DF0040F020002071A9799DF81B00890801F0010108438DF81B00A979E9
:2015DC000A074CBF0821002108E0FFF753FA0028ECD0307804210BF00BFFE7E708438DF80A
:2015FC001B000020009000239DF81A1004AA05A80CF018FE20B1FEF72BFF8DF810001AE036
:20161C006869C0B19DF810001AFB00FA0AF123036A46102198B215F0CBFB60B91022FF2136
:20163C00684616F041F830B99DF81A0005A900F0010017F071FD9DF81000F179884255D2F5
:20165C00E8680021039105A90269019002924FF6FF78686900902B69AA689DF81000FEF7CE
:20167C0008FE0446AF88B06A48B906F1180100910223924A4146012017F0F6FCB062B16A3C
:20169C0019B3FF200390022200230292019307A800900DF11203328B384605F0E5FC68B9BD
:2016BC009DF812009DF8131000EB012290B228B1B06A418992B23846FEF7F7FC328BB06A21
:2016DC000023414617F0CCFCB062200005D09DF81000FEF7EDFEFEF767FE200007D1707AAD
:2016FC000028A88804D1FFF757F903E01524A888FFF79EF9F06900281CBF4368002B0FD071
:20171C006A78A888012198476878002808D1A879C10705D5F369A88822465C680321A04733
:20173C00BEE0687806281BD1A88817F0FDFCB8B1F17C012904D013D3032907D00CD30FE03A
:20175C004179A8880022FFF7D9F809E00022002140F2094003F08EFCA888052117F07CFCA1
:20177C00F06900281CBF4368002B03D06A78A888022198479BE000970023E97801AA01F002
:20179C000101281D0CF04EFD0028F3D19DF804001AFB00FA0AF1250305F10C02042198B275
:2017BC0015F01AFB83E0F06900281CBF4368002B03D0A888002200219847707810B9A88858
:2017DC0005216AE0A88817F0AFFC040070D0A87AC10712D5009700236179002201F00101DD
:2017FC00A01D0CF01FFD00281EBF60790028012803D0E868C0F3402028B1307C022807D10C
:20181C00A87A010704D4A888032117F021FC4FE06179A88805F1080227E02F7BAD882846A5
:20183C0017F082FC040042D017F05EFC00283ED100900023617901AA01F00101A01D0CF075
:20185C00F1FC28BB9DF80400FEF799FD07F00C07042F11D0082F0BD00C2F0FD100F0090133
:20187C0009290BD0617900222846FFF747F81EE010F0090F02D1F5E7C107F3D50122009296
:20189C00A37C9DF8041002462846FEF7DDFF0EE070780028E6D10521284617F0D9FB06E0D3
:2018BC00FFF7E8F818B1307804210BF0A1FD0127384609B0BDE8F08FF028002058AE010045
:2018DC002DE9FE4F04460020009000250CB915F0A5F804F1500841F62300D8F80070388064
:2018FC007D8002223A737A73694620460BF04AFE08B9072051E2009901B1B860B86820619A
:20191C00DFF89C04017884F8B810D8F80400407A13F06AFA25302076207EB873FD73D8F88E
:20193C000400017D022904BF002015F077F8D8F80400007D012802D10020002104E083286A
:20195C000CBF0620022020213874797404F12406DFF850A4DAF83C0041690868717901EB96
:20197C0041010844B0F801207A82D8F80400417848060AD5607DC10604D5E07F40F04000F2
:20199C00E07702E040F04000607507F15C0904F1300089F80050B17E890001F0040189F82B
:2019BC000010B866607DC10656D5D8F8042051788A060CD500F0FE006075D8F80400417890
:2019DC0011F0030F03D1E07F00F0FE00E077607D17F03AFBA075421C387CC0F380010023C9
:2019FC0092B200F0030017F02BFBA0831E20A28B02F59B7393FBF0F01E2101FB1030C0B279
:201A1C0008B1C0F11E00821802F59B7262831E20A28B02F5967293B293FBF0F001FB103046
:201A3C00A283C0B208B1C0F11E008018A08380B2E27D618B521E50434018608307F13005C8
:201A5C00608BB43080003866062089F80300E17F41F00801E17720E040F001006075D8F80B
:201A7C0004104A78510744BF40F002006075607D17F0EAFAA0750023401C82B2387CC0F31B
:201A9C00800100F0030017F0DBFAA083A08B00F59670A0833D6689F80350A17D207D61F3E8
:201ABC00050007F18801207508700322607D48708A70B07E800000F0040040F003008870F6
:201ADC00F27ED20002F00802104388700020C870C7F89000B08BC0F30B00B083D8F80410AA
:201AFC00CA7D40EA0230B0830022617D01F0FE0120460AF0E9FF019700271EE01C2010FBB8
:201B1C0007F004EB000B01991C220BF1640016F029FA0BF16C00052101717F1CA28B9200FD
:201B3C000260FFB2DAF83C104A691168737903EB43031944B1F801204281E07D401E87429E
:201B5C00DCDB019F20460EF09DFDE07D012809D013D3032808D03EBF04F164007860C8F8DE
:201B7C0018500AE07D6008E004F16400786004F18001C8F81810C8F8345041F62400388646
:201B9C000021798607F13C05B868618B00EB8100B8630221822028706970002194F8210039
:201BBC00E97000F03F00A870D8F80400807D012818BF022803D100F07F00401E04E083283E
:201BDC000CBF062002202021287169714FF0000BDAF83C0041690868727902EB4202104440
:201BFC00B0F80110E980C7F86CB0D8F80400417811F0030F20D017F01FFAF866DAF81800D4
:201C1C000078C107DAF8181009784CBF1F200F208A07DAF81810097848BF40F020004A07C0
:201C3C00DAF81810097848BF40F040000A0748BF40F0800089F8140089F815B0D8F804100F
:201C5C00594A897C01F0030189F81510B07E800000F00400014389F81510F07EC00000F07B
:201C7C000800014341F0100189F81510107838B199F8140000F0FE0041F0400189F8140009
:201C9C0089F81510E07F17F0DFF984F82000204617F0CEF9E07FC10636D5D8F8040094F8E3
:201CBC0020204178521C88074EBFD21EF07F12182879C0F380010023D2B200F0030017F006
:201CDC00BFF930801E22308800F59670C0F11E0190FBF2F21E2000FB02113171D8F804107C
:201CFC004878810731884CBF00204FF49B70401830807080B86B318832795218A63200EBA2
:201D1C0082007867022002E0C7F874B0002089F8170004F13000C7F8800007F18400D8F8F7
:201D3C0004104A78510707D504F13802026099F8150040F0200007E01C490A68516801601E
:201D5C0099F8150000F0DF0089F81500A17F94F8200060F30501A17740F60B002882A5F897
:201D7C0012B0DAF83800008880007865DAF83800008800B1072028770220687794F84510AB
:201D9C00E983D8F804004178880744BF0121E983009808B10AF046FD0020BDE8FE8F00BF6F
:201DBC009F500020C8B40100880E00206C0F00202DE9FC47D44C0F460546F80B80F0068216
:201DDC006078DFF85883B90F80F0AA81B90880F09D81F90A80F00281390B80F0CC80380974
:201DFC0007D2F80FC0F0288227F0804710F048F822E216F0BFFC814615F06AFB002800F061
:201E1C00B480082016F074FB002840F0AE80802016F06EFB002840F0A88068460DF05CFCBD
:201E3C00012803D10098002800F09F8094F84102002840F09A8000250126E8B216F074F821
:201E5C0048B1837A3BB1867290F9090006FA00F0C0B214F027FA6D1C032DEED3032084F85A
:201E7C00200004F5CC7016F07DFC484617F0DCF8D34800252A460168056050F8081CD14905
:201E9C0040F8085C04F15C0015F032FA40460068006B8047A168401A010BA06AC1F1FF328C
:201EBC0082422CBF08444FF0FF30A06294F82C0020B12069A16AB1EBC02F25D915F018FBDD
:201EDC00294600B13146081C1BD0BF4840F6090101804580417B06F00F0221F00F010A4382
:201EFC004273017B05F00F0321F00F0143EA010202732946416016F0B9F9418811F4406F83
:201F1C00FBD084F82C60A56212F064FCCE4829460560022015F06AF8022014F037FB11206D
:201F3C000BF018FD207818B96068483016F066FCC648007810B90E200BF00CFD94F82D002A
:201F5C0020B184F82D50052014F020FBC048606284F82050B4F9B000B4F9B210884214BF38
:201F7C00022007200EF0D0FB02E0484617F05CF827F008073AE720B1042014F007FB002006
:201F9C006070656813F092FF38B12846ED696FF4807100224FF00073A847E06858B1404659
:201FBC000068006B8047E2686168801AC860000BC8600026E660A74904F15C00002215F08F
:201FDC0097F90221D4F89C0084F8201018B104F1DC0016F025FC27F4006707E716F0CAFB22
:201FFC00064615F075FAD4F894100028894600F08480002900F081809749042504F15C0036
:20201C00002284F8205015F073F9304617F00CF804F5CC7016F0A6FB40460068006B8047A8
:20203C00E0604FF0010884F80180284614F0C6FAD9F810006060D9F81000416AC90803D3F9
:20205C00036A294600229847404610F033FE606880F8158060680BF073FF6568D5F808A084
:20207C0040F60A02D01F564600F1010C00E01E46736833B119888A4203D0884218BF8C45C4
:20209C00F5D100217160727B08F00F0322F00F0213437373D9F80C201288904224D0604613
:2020BC00904221D02B8E03B3696305F13002518095F83C0001F00F0320F00F00034385F85F
:2020DC003C3095F83D0008F00F0320F00F00034385F83D307260707B01F00F0520F00F0074
:2020FC0045EA0001717300E0E160504616F0BEF85146404614F07AFF02E0304616F094FFB2
:20211C0027F4806798E0C046201B002007F0B6FCD4F89C0008B927F002078DE08C010010CC
:20213C004E4A116841F08001116020B1042014F02DFA0020607016F01DFB8246D8F8540035
:20215C00016804208847D0B1287DC0B1A068B0B18146D8F800002E69006B8047A0EB090013
:20217C002861000B2861B04202D280194008286140F6C41181422CBFB0F5967F2961504663
:20219C0016F052FF13F092FE80B1EE6928466FF4807100224FF00073B047D4F8940000289C
:2021BC0008BF47F0020701D00FF06AFE2846AD6900214FF080630A46A84727F000573BE035
:2021DC00141004408D310100A04F002016F0D2FAD4F8AC6066B306F1280106C90A234FF08F
:2021FC00E0450B40154008BF002B21D106F1280191E8000306F1280595E8060006F12803B5
:20221C0022EA090221EA080183E8060016F00CFFB16879B1B9F1000F08BFB8F1000F09D0A1
:20223C003069B6F93010B5684B464246A84701E016F0FAFE27F4804727B104F1DC003946EC
:20225C0016F0EEFABDE8FC870000046062B3010065C60000BDB90000CD740100CC210840BA
:20227C002DE9F84FDFF85854A9780024FF2904BF002014F0D3FBA87815F006FE054605F1D6
:20229C00680605F5C9773168086805F1900808B1EC8311E0B07B002804BFB07E00280BD182
:2022BC0098F80010002904BF3878002804D1287F012804BF688CE8832989E88B4118491CF4
:2022DC006981284616F0ACFE01281EBFDFF8F4030178012903D12989EC83491C69814FF6DA
:2022FC00FF79B07E01280DD1B28B6989288916F093FE38B1298968894A1C93B298422FD08E
:20231C00B08B23E098F8000001280FD1B8F802206989288916F080FE40B1298968894A1CD7
:20233C0093B298421CD0B8F802000FE03878012816D17A886989288916F06EFE80B129891B
:20235C0068894A1C93B298420AD0788892B2904206D04844688180B216F05AFE4844E88329
:20237C00387801280FD128897988401C80B2884209DB7C793C71022038702346A97922463B
:20239C0000200AF069FF05F59A71087920B128890021401CE9836881B07E012813D12989D8
:2023BC00B08B4B1C9BB298420DD1688116F030FE804605F12E008188308C01FB0808284614
:2023DC000EF0E6FB03E005F12E01B1F80480EA8BDFF8F492501C00FB08F040F6C41808FB87
:2023FC0000F100912B68D3F80CE07144D960B74B196809788909032940F0168199F80F30AE
:20241C00B349DB0740F10081B5F812C000230CFB00FC4FF4C87EBCFBFEFC0CF1010C0B809C
:20243C00A861C5F814C085F820204FF01C0BDFF8A4A2AB79DAF8000000F108021BFB03F3A9
:20245C00D1582A68116100F10801AB79D26868691BFB03F3121ACA50DAF80000AB7900F1D1
:20247C0008021BFB03F3D1582A68916000F10C02A9791BFB01F10C30535C03F0F00343F051
:20249C0002034354DAF80010AB798A1C1BFB03F30021D152387908B914F0C0FADAF8000086
:2024BC00AA7900F1100138791BFB02F240088854A879DAF800101BFB00F0084400214174D1
:2024DC003879042814D1A879DAF800101BFB00F001F110021031135C3A7A43EA82030B549C
:2024FC00AA79DAF800001BFB02F2024420205074DAF80010A87901F112021BFB00F0002147
:20251C0011527549A8790A6802F114034FEA401C143253F80C00AB79D5F814C05B0100EBA3
:20253C004C00D050B07E02280DD10A68AE7902F11403760114329859AB7995F82E605B01F1
:20255C0018FB0600D05005F12E0299F80F00C30773D5DAF80000AE7900F108041BFB06F646
:20257C000830A359AC791BFB04F4A3F5A8630351DAF80000AE7900F108041BFB06F6A359DD
:20259C002C68A36000981B1A23610868AE7900F1140476011430A359AC79640103F5F66305
:2025BC000351387904280BD10868AE7900F1140476011430A359AC79640103F56163035101
:2025DC000868AC7900F1140364011859C5F83401424B186B0C68AE799288006804EB461701
:2025FC0042436424B2FBF4F408FB04F0A0F59660F8613B480278012A48D10868A97900EB84
:20261C0041120120D07248E00B885B1C1FFA83FCBCF1010F11BFB5F812C005F59A7EBEF84A
:20263C0006C00CF2DC5CF2E6698A41434FF4C873B1FBF3FC0CF1010CF2E6042C0BD10868BC
:20265C00AE7900F1140476011430A359AC79640103F56163035138790B68AE7904280CBF9B
:20267C004FF4AA504FF4E66003F114047601A359181A938808FB03F3A3F516739842A7D33E
:20269C000821284614F01CFB012016E0586A0968AA79407801EB4213D872A879DAF80010B9
:2026BC002A681BFB00FB01EB0B00506007210D48017028460FF04AF90020BDE8F28F00BF11
:2026DC00780E0020D10F0020980C00203C0F002092500020980E00209C0E0020C8B40100FA
:2026FC00CC0F0020C80F00202DE9FE4F0546DFF82404DFF824640278002A4CD0052A73D08E
:20271C00062A00F08080072A18BF082A00F0F7800A2A00F0D381112A02D0132A70D0F1E108
:20273C00DFF8F8331878002116F0DAFC04001EBF606D407810F00C0F2DD0216DC0064CBF11
:20275C00886CC86E0622016801F10805A91C684615F008FC287800F00F0105291BD145091F
:20277C006946C0F3801016F04FFC002813D03168684616F045FC0746316804F1380016F048
:20279C003FFC87420DD0606D4178C80604D440F2014016F031FCBBE1607B40F002006073EE
:2027BC00B6E133681E2010FB07F6981906226946C01D15F0D7FB606D4178C806F0D5A17B14
:2027DC000129EDD1DFF858038178480605D5E90703D4206D41F20A4102E0206D41F20441E9
:2027FC0041804183418693E115F0F8FF0028FAD10FF074F8012802D0012016F0F9FB87E125
:20281C000EF01BFF84E1DFF81C53286816F0ECFB0400F7D020790328F4D1207A00F00F016E
:20283C00072937D1C04800684169497A4A1E11425ED0617A04F10A035A5C02F03F02252A69
:20285C0056DBA17A8A09012A52D111F03F0F4FD0007C15F019FBE17ACA074CBF04F11102ED
:20287C0004F10B028B0748BF921D0B0748BF921CC90648BFD21C1621127852094A43AB49CA
:20289C008B180A31EB608A5A428699898186DA89C2862DE000F00F00082829D1A17A880991
:2028BC0026D129B3A0480168087C15F0EDFAE17A074688071CD5062201F001015143601819
:2028DC0000F10C01684615F04DFB207AC009FF280ED0694616F098FB50B1306800F10D019B
:2028FC00684616F07DFB18B90521384614F0E8F92079032802D0002014F090F8FEE0DFF83F
:20291C0030B29BF802000024FF281BD015F0BCFA804608F16C09D9F8040016F065FB2A4654
:20293C000179032901D011000CD08368197801F003008D06009003D50124009818B9BAE084
:20295C001000FAD0E4E05D7803F1020A34B31AF8010B784B01902C2098F806C01F6810FB5B
:20297C000CFC67444FF0010E87F805E0002A1F6898F806E007F11A0C019F10FB0EFE07F0E3
:20299C001F070CF80E7098F806701B6810FB07F01844019BC3F38113C3761AD100980328BF
:2029BC0008F217171AD0ADB199F8000068B108F1F4000278012A0DD1564B1A78072A04D039
:2029DC00082A04BFC078012804D13D217970012038709DE0584A1378012BFAD098F89400DC
:2029FC0070B32D1FEDB253462A4640460DF0D2FF00281EBF51490878002807D13D217970EA
:202A1C0001203870306816F0E7FA81E04C4801688847064698F80610DBF804204FF4D070B9
:202A3C0041435018002280F8412108F59E700168807949080EF094FA42490A6830469047FE
:202A5C000098032819D04048416909788A0708D541690878C1074CBFE81C28461AF800000C
:202A7C0000E0812089F808002A460098C3B29BF80200514606F0E0FB1DE09AF800001CB15A
:202A9C001B2804BF022D01251C2803D22F490B5C9D4205D0B8700721404616F005FB0AE04D
:202ABC001C48017808295146404602D115F05CFE01E000F079FAD9F8040020E0244C20787C
:202ADC0030B3244D286816F08FFA08B3017903291ED1017A8A0611D5807AE178C0F381128D
:202AFC00914202BF217900F01F00814206D1A078002801BF607800280121A170286816F01A
:202B1C0067FA05E0002013F089FF862016F0E4FABDE8F78FC80F0020680F0020D50F002061
:202B3C00C00C0020BC0A0020540F0020E0070020780E00201C500020D20F0020A4500020D6
:202B5C00EC290020F0290020C8B4010060B50100C84F0020AC0C00202DE9F04F0F46380562
:202B7C0089B018D5DFF8EC532888FF280ED0C0B215F08AF9040009D0A079162116F024FAFD
:202B9C00204615F077F9204616F01AFAFF20288087F40060DAE1F80508D5022015F01AFE48
:202BBC0008B10DF07CFA87F48070CFE1B80604D512F029FE87F02000C8E1F8070CD515F0CD
:202BDC003DFB30B100218160DFF88C03006800B1804787F00100B9E1380704D513F04DF806
:202BFC0087F00800B2E1F8060FD5002100220023069105920491039302910192009102202D
:202C1C0016F0DAF987F01000A0E1B8070FD5002100230691059104910393029101910091C2
:202C3C0001223C2016F0C8F987F002008EE179074FF01E08C94EDFF828A340F1CD80C9481D
:202C5C000022002108920791007816F049FA0446C5488178FF2904BF002013F0DFFEA07ACD
:202C7C0015F012F905469AF8000095F82E91002805F5947B69D0606D807A022818BF0328A2
:202C9C0007D130680D3016F093F910B93068C11D07915946484616F0B7F9A0B3606D807C03
:202CBC003368002818BF012804D11946584616F0A7F904E05A464946184616F039FAFF28EC
:202CDC0043D018FB00F83068404406225946C01D15F048F9306810F80810404400F1010B7B
:202CFC00C01D41F0020908900622616DC87A00F0010085F82E01606D00F10C0105F5947069
:202D1C0015F030F921E05946484616F04DF9E0B130685A46494616F00BFAFF2815D018FB6D
:202D3C0000F8306840440D3016F042F958B9306840440D3016F03CF9002801BF306840443C
:202D5C00417F012901D149F0020905F12C004B46017806914289120905920122698C04916A
:202D7C00C0880899029140080390CDF800B0079801900020A97916F01FF9D5F89C017B49AD
:202D9C008842A8790CBF0021012116F009F97848AB7902682C214B43134401221A73AB79C2
:202DBC0004684B4323445A73AB7904684B4323449A73AB7904684B432344DA73AB790068D9
:202DDC0011FB03F10144002008740720A9790CF0B2FD87F00400B9E038060FD50021002388
:202DFC00069105910491039302910191009101223B2016F0E1F887F08000A7E0F8045DD5A0
:202E1C005C4930680C680D3016F0D2F8002844D13068C11D0D3016F0BFF83EE0606D417887
:202E3C00480704F13E0526D5287802281EBF03286878012830D16978306804F1380216F06A
:202E5C0077F98146B9F1FF0F15D0306818FB09F948440D3016F0ACF868B930684844C11D3F
:202E7C000D3016F099F830684844C11D062204F1380015F077F82878022818BF03280BD1EF
:202E9C0030680D3016F094F830B93068C11D062204F1300015F066F82468002CBED13648DB
:202EBC00DAF8042000784FF4805112F069F810B18E2016F06DF887F4805047E0B80505D52E
:202EDC0015F0BCFA2D4901200860FEE7780504D514F07DFD87F4806038E0780405D58120F9
:202EFC0016F056F887F4804030E0B9042DD5244C206810B1002013F091FD4FF0FF30206000
:202F1C000020204C0DF0F0FF216851F8202F684690471D494A6B086BC96A24681B4B019231
:202F3C0000900293ADF810106B46194A19491A4803921A4A07922568194AA8471949086078
:202F5C0004F05CFE87F4005000E0002009B0BDE8F08F00BF10300020480F0020680F002032
:202F7C00880E0020D70F0020780E00204DE501101C5000204C0F0020C70F00207C052043AF
:202F9C00380F0020200F0020842A00203982010049820100B42E0020280800201EFB00801E
:202FBC00EC0A00201C0F00202DE9F043044685B0084611F801CBDFF8A483DFF8A4332C22AF
:202FDC00BCF1030F4FF0000904F5A47704F1660504F1F40600F0C380BCF1070F00F0808184
:202FFC00BCF10F0F0CD0BCF1110F00F02481BCF11A0F00F03681BCF11B0F00F061818EE117
:20301C00707A820703D40F2184F8191159E008784A7800EB02233B808878CA7800EB0223DC
:20303C007B8008794A7900EB0223BB808879CA7900EB0223FB80087A38724A7A887A02EB3C
:20305C0000237B81C87A0A7B00EB0223BB81487B8A7B00EB0223FB81C87B0A7C00EB0223F5
:20307C003B82487C8A7C00EB02237B82C87C0A7D00EB0223BB82487D897D00EB0122B948AE
:20309C00FA8201788A0658BF4FF01A0913D504F5AA70049079890391387A02902189019171
:2030BC00F8880090BB887A883988204615F06CFFC8B14FF01E09707A410706D40F2084F872
:2030DC001901204615F05CFFF0E04A460F21204615F052FFF8880090BB887A88A1794846AB
:2030FC0010F06CFDE9E004F1860079888180BA88C2800222F98801810270A0F80290A18E8F
:20311C00C91DE983628E8188B1EB520F02BFC188A28E914202BF0089E18EB0EB111F1CD0CE
:20313C00287C012804BF687C0F2809D0687D00281CBF687C1A2803D00F21A976FE2176E04A
:20315C00FC21204615F0B0FFF8880090BB887A883988A07915F00CFFAFE0102167E0707AEC
:20317C00C20709D431781A200129707002D1FF220D213BE00D215AE085F8009085F80690DB
:20319C0001233371082204F1B00015F0EDFE0146022204F1B80015F0E7FE04F1A80801469E
:2031BC000822404615F0E0FE07460821404615F0D7FE04F19C0804223946404615F0D4FEEF
:2031DC000421404615F0CCFE04F1A00015F0C4FE04F1980015F0BCFE6348018841F08001CB
:2031FC0001803078012805D1FF220421204615F0ABFE62E06E7C0F2E18BF142E04D00E2E9F
:20321C001CBF0C2E1A2E11D12F7C204615F098FE0421204615F048FF012F05D11A2EAE765E
:20323C0014BFFD21FB2102E0314600E00421204615F03AFF41E00E783E761A2E4978797610
:20325C006DD11868A679411C564301F806901968A37912FB03F20A4482F80490A179787EE5
:20327C0056E0A77918680E785743074406F01F0117F8210FB60938B17878F040C00703D535
:20329C0094F89601042805D120221A21204615F073FE12E0F970A179186812FB01F2811806
:2032BC00204681F82360002115F09AFA28B998F800004FF480410AF09BF84FF0010932E079
:2032DC00A179186851430144C88808B981F80190A179186812FB01F2811881F80490ECE731
:2032FC0009780F2917D01A2919D1A1791868514301441A2081F80190A1791B6812FB01F291
:20331C00991881F80490F17A01F0FB01F172A1790CF0DCFFD1E7717A01F0FD01717201466B
:20333C00204615F009FE687C1A2812D1A87C17281CBF1028FC280CD12E7C204615F000FE6C
:20335C00012E03BF1A20A876FB211A21204615F0ABFE484605B0BDE8F08300BFC70F00208D
:20337C001C500020200E00209C0F00202DE9F84F0422FF21684614F0FFFDDFF88C63B0784D
:20339C000024FF2800F0BE8114F07EFD0546B07814F02CFF064605F217100178012908BFA2
:2033BC00417800F0008105F1740005F5927A817B022904BF05F174018C7395F892010228B9
:2033DC0005F1740008BF85F89241017F022904BF05F174010C77BAF80E1019B19AF80C00BC
:2033FC000AF006F86889C94F288105F58D7BBA7AF879397B80184118F87A0818797B00EB4A
:20341C000109BBF80400BBF80010401CABF804004944BBF80200ABF800101018ABF8020047
:20343C00DAF80000F0B1BA4995F806E00B681C2103F10E0C11FB0EFE0E331CF80E1030F816
:20345C0011C0CC4420F811C01C2195F806C011FB0CFC13F80C3000EB4300B0F84A10521801
:20347C00A0F84A2013F062F8F879002804BFF87A002805D1387B002804BF787B002840D03C
:20349C00F481A046F07EC00910D0307F00F00701022907DA00F0F802401C00F0070010435B
:2034BC00307703E0A879002111F090FA2989E8892C744118287FA981012804BF688CE88361
:2034DC00A979012207200CF036FA787805F1740658B101212977B078002804BFB07B0028A7
:2034FC0003D1307F08B9688CE8839AF81400002862D0022804BFF87A002858D18AF8144087
:20351C005AE0A979002207200CF015FAEC83317F11F0070F02D1F07EC00903D0A87900218A
:20353C0011F054FAB87A38B1287F01284FF0010827D1688CE88324E0BBF80600401CABF8DA
:20355C0006004FF00208287CD8B172490868AB7995F82E6000F1140268694FEA400C40F6D6
:20357C00C4105B0110FB06CC0CF5F660D0500968A87901EB4010C17C01F0F00141F0040188
:20359C00C174A8892989814206D088429DD2081A41F2AB02904298DA287C08B1052901D083
:2035BC00082100E03E21284613F08AFBAAE0787A10B102218AF81410F87BC1070DD53869CD
:2035DC002968C86000F59070C86052480168A87901F114024001145014E04E48AB79026810
:2035FC0002F114015B01C858CAF810004848AB7901681C2001F108024343D0582968C8609D
:20361C00EC832C77444A50690078810702D5B87B802800D181203070404991F8200018B176
:20363C002946012015F0D2F828460AF043FD02281BD1F079022805DB6A46394928460FF03F
:20365C00A9FA0446284615F073FC01285AD020000DD02246694628460FF050FF38B92846FD
:20367C000AF028FD012802D14CE001284AD00121284615F059FCFEF7F3FD012842D028462C
:20369C000EF091FB00F0F8FB264F3868002839D0B888AA7990421CBF4FF6FD71884231D1CC
:2036BC002148007B14F00AFE04002BD084F80080A8791E4960800A68A879115C217105F50F
:2036DC00C9721079607196F90010A171A4F80890BBF80200608114F0B1FD050005D1FF2012
:2036FC004FF0FF312073216109E02878207315F017FC0146A86815F00FFC80082061204620
:20371C0039688847BDE8F18F780E0020980C0020980E00209C0E0020C8B40100B04D002064
:20373C00EC2F0020800E0020C42E0020345000202DE9F84FDFF894030278112A03D0122A3F
:20375C0000F0BE81C0E1DFF888331878002115F0C7FC05000AD1002013F060F9002013F0F3
:20377C005DF9BDE8F24FFF2015F0B6BC05F14C0A9AF8000008B90121E972401CDAF80810F9
:20379C008AF800004A78D106DCD4E97DDAF80470C2B28A424FF00008D4D305F1280407F14E
:2037BC00900907F17306C34640F08C80A87F7075E97FB175DAF808205278930710D5EA7F58
:2037DC00D30604D5C01E707501F0EF01B175C7F874B086F800800022B17D01F0FE016AE1E5
:2037FC00910608D4E08B00B1E07E3076E08B00B1206AC9F80000DAF808004178CA070DD56D
:20381C00E08B00281CBF206A002807D0C9F80000A17EE08B814238BF08463076E87FC1066E
:20383C000CD5B86B217800EB8100B863B86BA98CA63100EB81007867022002E0C7F874B0E7
:20385C0000203070DAF80800417811F0030F22D1007814F0C1FF5FEA00081CD098F8B0003A
:20387C00032809D1E87F810615D440F02000E877B07D40F020000DE068B9E87F81060AD549
:20389C0000F0DF00E877707DA0F112017175B07D00F0DF00B075E97F002201F0FC01284660
:2038BC0009F012F9B8F1000F36D0E87F810633D598F8B00002282FD141462846BDE8F44FED
:2038DC0014F092BFE87F81060AD500F0DF00E877707DA0F112017175B07D00F0DF00B075E4
:2038FC00DAF808004178C80717D5B07D717D00F0F700891E01F03F0182075CBF891D40F00A
:20391C000200420644BF491E00F0BF00B0757175C9F800B086F81880D6E09AF80020E87DC9
:20393C00121AD2B28907009240F18280012A07F140083FD1B86BA98C00EB8100B863A87FE5
:20395C0000F03F00A8777075E97FB175DAF8082053785A0703D5801F707501F0FD01B175F3
:20397C000023707DE17E00F03F00421898F80000521CC0F3800192B200F0030015F060FB6A
:20399C0000F59B70A8841E21A88C90FBF1F18AB2B17D01F0FE01284609F096F886F800B082
:2039BC00E08B00B1E07E3076E08B00B1206AC9F8000089E0B86BA98C022A00EB8100B863F0
:2039DC0026D1E87FC10706D5707D811F7175B07D00F0FE00B0750023707DE17E00F03F0079
:2039FC00421898F80000521CC0F3800192B200F0030015F025FB00F59B70A8840022B17D47
:203A1C0001F0FE01284609F05FF8607FA8F81A00617F0098491C081AC0B201281CDDB96B8C
:203A3C00AA8CA63201EB820179670221317014E0B86BA98C00EB8100B863617F0098081ADC
:203A5C00E97FCA06C0B207D5B96BAA8CA63201EB8201796702213170B0B395F81F80A97FC8
:203A7C00D9F80020E37E1A44C9F8002028F00108DAF808205278530748BF28F00208920798
:203A9C0048BF28F00808012807D1207F3076C7F874B028F0100886F800B001F0C004404619
:203ABC0015F0D2FA00F03F002043707586F81680002208F0FC012846BDE8F84F09F004B868
:203ADC00BDE8F14F0EF045BFBDE8F18FC80F0020D50F00202DE9F041FF2806462AD114F00A
:203AFC00DDFC10F01F0F22D0042012F08BF908B1042016E0012012F085F908B1012010E0C9
:203B1C00022012F07FF908B102200AE0102012F079F908B1102004E0082012F073F920B150
:203B3C000820BDE8F04112F0A3BB12F077FF0020BDE8F08112F09CFB8046012ED8F80440BB
:203B5C0046F2A81740F6C4100BD0022E5DD0042E00F0AB80082E00F0F380102E00F0428139
:203B7C00E5E7DFF8000301688F88102012F04AF9E8B1102012F07CFB05466E6846B902200A
:203B9C0012F040F920B1022012F072FB05466E68012012F037F940B1B068A0EB8701A068D4
:203BBC0013F026FC08B94046C2E72846C0E7022012F028F990B1022012F05AFB0646012053
:203BDC00756812F01FF938B1A868A0EB8701A06813F00EFC0028E6D03046A9E7042012F0A7
:203BFC0011F908B10420E7E7082012F00BF930B1082012F03DFB4168002999D1D3E701206C
:203C1C0012F000F9002893D0CDE797490A689749D3690A7802EB82029E18F788474304200A
:203C3C0012F0F0F807F5166788B1042012F020FB06460220756812F0E5F80028CCD0A8688D
:203C5C00C11BA06813F0D4FB0028C5D1ABE7082012F0D8F8D8B1082012F00AFB05466E686F
:203C7C0046B9012012F0CEF820B1012012F000FB05466E68022012F0C5F8002895D0B068AA
:203C9C00C11BA06813F0B4FB00288ED18BE7012012F0B8F808B10120C8E7102012F0B2F841
:203CBC0008B11020A5E70220AAE771490A68714953690A7803EB0216B7894743082012F0A2
:203CDC00A1F807F5166780B1082012F0D1FA05466E6846B9012012F095F820B1012012F0CC
:203CFC00C7FA05466E680420C5E7012012F08AF828B1012012F0BCFA064604209AE710207E
:203D1C0012F080F880B1102012F0B2FA05466E6846B9022012F076F820B1022012F0A8FAB5
:203D3C0005466E680420A6E7022012F06BF828B1022012F09DFA064604207BE704205FE73E
:203D5C0014F046FD08B1D0F89070042012F05AF858B1042012F08CFA06460820756812F0FF
:203D7C0051F8002818BF002C68E7012012F04AF860B1012012F07CFA0646082012F042F8A5
:203D9C00002818BF002C3FF427AF0CE7102012F039F8A8B1102012F06BFA05466E6846B96D
:203DBC00022012F02FF820B1022012F061FA05466E68082012F026F8002818BF002C5DE774
:203DDC00022012F01FF858B1022012F051FA06460820756812F016F8002818BF002C2DE774
:203DFC0008200DE7032014F0F5FC08B1D0F89870022012F007F850B1022012F039FA064623
:203E1C00102011F0FFFF002818BF002CBBE7042011F0F8FF28B1042012F02AFA06461020CF
:203E3C0008E7082011F0EEFF80B1082012F020FA05466E6846B9012011F0E4FF20B10120D5
:203E5C0012F016FA05466E68102014E7012011F0D9FF28B1012012F00BFA06461020E9E6A2
:203E7C001020CDE630500020500F0020D80F0020540F0020D90F00202DE9FE4FDFF81853ED
:203E9C006F681FB9BDE8F74F15F042B83878DFF80CB3C34EDFF80C83012818BF02280AD0AC
:203EBC0004281CBF0828102805D0402818BF802800F0A78069E114F0F7FA0028FAD0012052
:203EDC0011F0A0FF20B1012012F0D2F911F046FF082011F097FF20B1082012F0C9F911F0A4
:203EFC003DFF3878FFF7F6FD814698F80100D9F80440002850D005F015FD13F0C5FF824686
:203F1C00DAF80000009047689AF8060088F80300BCB10099484607F0C5FE022811D099F86F
:203F3C000010012902D0082965D02EE128B914F0F7FF00F5E8504C30A0600120A8701121F5
:203F5C005CE00098017880290BD10820964930700A787869012A1ABFDBF8241009780121BB
:203F7C0014E0072030709AF8060014F03FF90446207BC10748BF9AF8060067D48A480178C4
:203F9C00786901291CBFDBF824104978C1729AF8060088F80200BFE0B9F1000F11D099F840
:203FBC0000004F4509D1012818BF082801D134BBF0E0002012F032FD21E0012802D0082839
:203FDC0017D0E2E0002CF3D014F0AAFF0146A06801F5C241A83113F00BFA28B914F0A0FFD3
:203FFC0000F5E8504C30A060112030700121A97005E0002CDCD00820A87012213170484691
:20401C00BFE098F80100002800F0888005F08AFC13F03AFF8146D9F800000090D0F804A0E9
:20403C0098F8020013F030FF019099F8060088F803003978402913D199F8060014F0D6F88E
:20405C000446207BC1070BD599F8060013F01CFF052112F035FE207B00F0FE00207399E012
:20407C0014F01CFA10F01F0F32D0012011F0CAFE20B1012012F0FCF811F070FE082011F070
:20409C00C1FE20B1082012F0F3F811F067FEA878FFF720FD07467C68D4B1009907F002FE80
:2040BC00022815D03978012902D008290BD00CE028B914F035FF00F5E8504C30A06011203D
:2040DC003070012156E0082057E0002012F0A6FC0198484520D0009933480A78802A0BD177
:2040FC000821317000780128DAF814001ABFDBF82410097801210AE007223270007801287A
:20411C00DAF814000EBF0121DBF824104978C17299F8060088F80200009832E014F0BEF935
:20413C0010F01F0F36D0012011F06CFE20B1012012F09EF811F012FE082011F063FE20B1AD
:20415C00082012F095F811F009FEA878FFF7C2FC074638787C68012802D008280CD019E0CF
:20417C00C4B114F0DDFE00F5E8504C30A060012111203070A97003E064B1A8701221317036
:20419C003846BDE8FE4F08F07BB8BDE8FE4F002012F044BCBDE8F78FE04F0020C8B401005D
:2041BC00C80F0020780E0020CC0F00202DE9F84F05004ED0DFF8E48298F80000092818BFF6
:2041DC000A2804D00B281CBF0C280D2801D1212062E1A878002114F083FF040008BF4220FC
:2041FC00F6D0AF4FA978DFF8BCA2397098F8000010B9A8788AF8000004F14806F068417891
:20421C0001F01201022902BF706900280C2012D0607AF0B1A07B012804D1B5F8030008B186
:20423C00812816DA6878402813DA204614F06CFEB06808B907202FE1B561287801281FD1E1
:20425C00A07B00281CBF0128042819D19648007808B9122020E195494A78824208BF092047
:20427C00F8D0F068417848070AD504F1220180204A7F04F1380106F0B3FE08B10B200BE1F5
:20429C00687808B9112007E12878DFF82492DFF824B2012840F0AF8000212173F166217A3F
:2042BC00012903D1B16968794871F4E0012000212072E1726173254609F0E4FD6060DBF889
:2042DC00000080477C4A0146106802E06A68426000680028FAD10846D9F8001088476968F6
:2042FC00764848610021387814F068FA3978012211200BF020FBF0684178C80605D52846C2
:20431C0001F05CF9010024D0C6E0688C0FF0AAFC85F82100F068007814F05EFA04001CBF5E
:20433C0094F8B000002807D0E87F40F02000E877687D40F0180068752846FDF7C1FA0100E8
:20435C00E2D134B194F8B000012804BF284614F049FAF0684178C8071CD505F14204A18896
:20437C0000291CBF3068002814D022788A4211D20F2014F0C5FD68B1F06801788DF80010BC
:20439C000F20A288ADF8012021788DF80310694614F0B2FD98F80000A0B94949087800282C
:2043BC001EBFF068417811F0030F03D04548006814F09EFD112088F8000001212972FFF715
:2043DC005BFD68E0284611F01FFF00281CBFB168002960D0AA7B012A04D02A69808802EB73
:2043FC00800202E0486E2A69821895F8B81010460AF088F94FE0207A00284CD0DBF8001044
:20441C00884705463878012114F0D8F900202E4920720A683E7811460B68187A002802BF29
:20443C00586D0378B3421FD0C9689142F4D138789AF80010884224D113F000FF61688842CD
:20445C001FD112F073F840F2014014F0D5FD1F491F4A204808600121107808F0C9FFD9F8BE
:20447C0000102846884716E01B4E30780128DEDD084611F057FC13F019FF3078411E317083
:20449C00D5E7204614F030FDD9F8001028468847204611F06DFA0020BDE8F28FC80F002084
:2044BC00D60F0020D50F0020D40F0020780E0020F0290020EC2900204C0F0020858100003F
:2044DC00880E00206C0F002030500020480F0020C70F00200D4B0000A15000202DE9F043B0
:2044FC00A24CA349A34E20700A22002008600D23A14840F2222102704380818085B09F4AAF
:20451C009F48106037789F480770FF2F7178417008BFFF29B2788270F378C3703579057186
:20453C007679467114D1FF2A08BFFF2B10D1FF2D08BFFF2E0CD194490A7802704B78437095
:20455C008A788270CB78C3700A790271497941718E4902788E4D8F4E8F4F0A7043784B7094
:20457C0082788A70C378CB7002790A7140798B4A4871FF2028706870A870E8702871687107
:20459C00002087490880F06B8649407808708649F06B007808701388844885490380F06B00
:2045BC00C06C08608349F06B90F83C0008708249F06B90F83D0008708049F06B90F8600079
:2045DC000870F06B406901797D484A1E0270F06B7C49C0783870F06B8069086008B912F0BB
:2045FC001DFAF06B7849C069086008B912F016FAF06B416D75480C2213F0B4FC14F070FCF1
:20461C00F06B7349006A086008B912F007FAF06BDFF8C081406AC8F8000008B912F0FEF93A
:20463C00F06B6D49806A086008B912F0F7F9F06B6A49C06D002840D001220A75F06BC06DAB
:20465C0002681378C3F3400048B1F06BC06D02681378C3F3C00000280CBF01200220487574
:20467C0000208860C8600861F06BC06D426890780870F06BC06D4268D0784870F06BC06D19
:20469C00426813788B70F06BC06D42685078C870F06BC06D426810790871F06BC06D426836
:2046BC0050794871F06BC06D426890798871F06BC06D4268D079C87101E000220A7501F001
:2046DC0013FB07280AD106F01BFD20784FF4804108F08EFE002012F0A1F943E040480168A8
:2046FC00884781460DF012FAD8F8000001688847684613F055FCD8F8002004208DF800005C
:20471C00694652F8043F00209847364908600FF013FDF068344A01883878344B01431180E9
:20473C004846196888470C21314814F061F8284614F0D2FB14F0CCFB2E4800214FF6FF7225
:20475C0001608280F06B90F858102B48006813F045FD0121FF2014F031F820784FF40051D5
:20477C0008F046FE05B0BDE8F08300BFC70F0020380F0020D04F0050700E00203C0F002080
:20479C00B63F0050400E0020E8120050500E0020480E0020C8B40100C40F0020123000203A
:2047BC009E0F0020C60F0020D40F00209050002024500020A2500020A3500020A05000204F
:2047DC00CB0F0020200F0020240F0020D44F0020280F00202C0F0020300F0020404F00201E
:2047FC00EC29002028500020A00F0020F0290020FC0D0020800E00203C5000202DE9FE4FE2
:20481C000D46074628687C68BE6800283AD013F0B1FFD4F8F81081460120019008294FF0A0
:20483C00000088BF0198A968084202D16968084205D0019880F00100C0B201281DD1D4F8FF
:20485C00D000B8B9C4F8D050C4F8D4500020C4F8E0000146C4F8E41094F80C31C4F8E8100F
:20487C00002BC4F8EC100CBF01980520D4F8D410087411E094F8080138B9032028744846C0
:20489C0014F0D2FB0020BDE8FE8FD4F8D4004561C4F8D45006232B74D4F8D4000021416188
:2048BC0094F80C01012809D1022294F80B318E49E06984F80C21194311F078F8686810F0EE
:2048DC00704F06D128B1042011F078FE062011F075FE022011F072FE94F80801DFF80C828B
:2048FC00002840F08F80F0692968884240F28A8094F80C01002840F0858094F8090120B1E8
:20491C00D4F8FC00B0F1FF3F7CD1484614F08CFBA868B24600280CBF04F58277071C68688E
:20493C00031C0CBF04F583761E1CD4F8F80009282CBF4FF0020BDDF804B0DAF80000D5F8F1
:20495C0000904168B9F1000F41F00201416008BF191C32D04146A1F11008D4F8F81009293F
:20497C0010D3D8F800104A6831889047D8F80000C168DAF800000A4669469047BDF80000C0
:20499C0038800FE0D8F800104A6831789047D8F80000C168DAF800000A46694690479DF80C
:2049BC0000003870AB6803B15F44696801B15E44DAF80000B9F10109CFD1D4F80051C36836
:2049DC0000221D4218BF019A102D18BF82F00102002AF4D111F0704F06D129B1062011F0B8
:2049FC00D5FD042011F0D2FD022011F0CFFDD4F8D010002008740746C4F8D4703E46C4F811
:204A1C00D0606EE0D4F8E800002843D1D4F8EC00002842D1307913F0AFFE4546D4F8DC008D
:204A3C002A68316940685268006891FAA1F1B1FA81F1134602229847D4F8DC002A687169BA
:204A5C0040685268006891FAA1F1B1FA81F1134602229847307913F089FE307913F08EFE6F
:204A7C002046314604F0B8F90021D4F8D000C4F8F0100068B0F5806F03D92046314604F076
:204A9C00ABF994F80E0160B93168486840F00200486006E0D4F8EC0018B92046314604F03F
:204ABC009BF93168486940F001004861484614F0BBFA94F80801A0B9D4F8FC1004F17C059F
:204ADC00284613F0CFFA60B1D4F8D00003210174384604F0C5F82846002113F0C3FA00209C
:204AFC0001900198BDE8FE8F00000780D40100102DE9F84FDFF8A09299F80000002114F0B6
:204B1C00EFFA040004F1500602D111F087FF33E1207A08B9002140E0217B491C2173306909
:204B3C00407920B1C9B2814208BF432135D004F14508002088F8070013F06DFD7168D1F869
:204B5C000320D4F810C022F07F4240F6C41303FB02CC4FF00B0E90FBFEFE0B2202FB1E00A7
:204B7C00376880B24FF47A6148431CFA80F0B86033688A489968216133690268B3F803005D
:204B9C0000281FBF706E0028A37B012B0CD0938801EB8301814207D33C21204610F046F99D
:204BBC00BDE8F14FFFF768B97D4D2878022809DBD068016810680969006912F019FC08B1A1
:204BDC000DF0A0FB70684178CA0604F122071BD5A07B01280CD100212172287810B1204616
:204BFC0014F082F96F480078022108F001FCAEE0306890F8631001F0E00141F0860180F8B0
:204C1C00631069494166A2E0356805F1020A0021AAF8001005F1730B407A10F0E5F8253058
:204C3C002076207E8AF80C0020460BF02BFD207D8BF815000020617D8BF816108BF8180096
:204C5C00C5F890003888401C388080B20FF00AF884F821007068417811F0030F42D1007818
:204C7C0013F0BAFD00283DD000F1B0010878032806D1E27F930603D442F02002E27731E076
:204C9C0001280ED1E07F40F02000E077607D40F0180060752046FCF713FE204613F0A2FD7E
:204CBC0020E008B10879E8B1E07F00F0DF00E077B068002804BFF068002810D17068007DC7
:204CDC0083280CD0617D03280A4607D0C80648BF01F0EF02100748BF02F0F7026275204604
:204CFC00FCF7EEFD617D002201F0FE01204607F0EBFE0020AAF8300005F13E0094F82110A1
:204D1C0001F03F010170A968628B01EB8201A9630021018298F80020828371684A789107D0
:204D3C0009D5BA887A80A17F01F03F0141F08001A17701218183E07FC10608D5A86B7988E5
:204D5C00A63100EB8100686702218BF80010174A107888B1387F022818BF03280CD1144F2A
:204D7C0038680D3014F024F930B93868C11D062204F1300013F0F6F8FFF77EF84CB1706833
:204D9C00017E480605D54946BDE8F44F032014F0B3B8BDE8F18F00BFD50F002030500020BF
:204DBC00A1500020C70F002000204E00880E0020680F00202DE9FE4F01200190A24EA34825
:204DDC00A34F0278112A02D0122A0DD036E1A14C2078002114F084F99F490546087810B173
:204DFC0000220A70F2E0002D00F01B819B48DFF87082DFF8709238600122217811200AF06C
:204E1C009AFD286D696D009141F60802009B96495C78E30640F1DC80044641F20443B4F86E
:204E3C0002C09C451FBFB4F81AE09E45B4F832C09C454FF4A05A1CD095F80EC0BCF1010F8C
:204E5C0004BFB5F89EE09E4513D0B4F802E041F20A439E451FBFB4F81AB09B45B4F832E09F
:204E7C009E4506D0BCF1010F04BFB5F89EC09C4503D13380C7F800803DE0002340F2FE3B80
:204E9C004FF0180C0CFB03FCA444BCF802E0A6F800E0BEF1010FF3D0BEF1000F55D0AEF18D
:204EBC00020EBEF1010F50D9BEEB0B0E1AD04FF48063BEEB030359D04FF4406BB3EB0B039A
:204EDC0043D09B1E012B40D91B1F3ED040F2FA3BB3EB0B036FD05B1E61D0D81E46D0001F36
:204EFC0044D06DE0B4F800C040F6010EF4452CD15B1C022BC4DD3868404525D1A06C016879
:204F1C00A06C026810790831032804BF94F86C00012811D1D1F80E0000281CBF088B0028B7
:204F3C000AD091F8220010F0E00F05D101F11E0013F0CAFF012870D0A6F800A0C7F8009039
:204F5C00A06C01680020087167E0A87B01281CBF0428A6F800A0C7F80090087D0028CAD0B9
:204F7C008868401C002288600A82C4E7A87B012806BF41F20243ACF80230ACF802A030882B
:204F9C00904215D1CA68088A4D8A521CCA60401C82B2AA4238BF2A464A82088208E0009950
:204FBC004A78D1064CBF816CC16E086800210171C7F800909FE7002011F030FD832003E069
:204FDC00002011F02BFD842014F086F8012038E0438E41F204455C1B1CD0A41F1AD03380FD
:204FFC00408890420CD1CA68088A4C8A521CCA60401C82B2A24238BF22464A82088206E0DD
:20501C00087D20B18868401C002288600A8241F20643C846C7F800803380012113480078CB
:20503C0009E013F0D5FB58B1C08811490F4A308039600121107808F0DBF901E00020019043
:20505C000198BDE8FE8F00BF9A0F0020C80F0020480F0020D50F0020A5500020756B021068
:20507C00950B00000D4B0000404F0020C70F00202F0B0100F8B5144600254FF48067DFF80F
:20509C009862C21B84B006F18C0334D0921E39D0521E47D0521E52D0521E58D0521E5CD059
:2050BC00521E00F08280921E00F08480D21E00F0B480521E00F0BF80921E00F0C880521EC3
:2050DC0000F08380521E00F0C980521E00F0D780521E00F0DA80521E46D0521E5ED0521E13
:2050FC0053D0921E00F0E580921E00F0E980521E00F0F48003E1012915D12078022822DCDB
:20511C00707006E101290ED1207802281BDA012804BFF178032900F0FB800028B070F0D1F7
:20513C007574E7E0012940F0E880207805280ADA0328F0700AD10020B0707074DAE00129CA
:20515C006CD12078022880F2D8807073E1E0102964D110222146714814E001295ED1207821
:20517C00022863DA3071D4E0012957D1207802285CDA00287071F6D00120B074602206F180
:20519C002C01184612F0EEFEC3E00129FCD12078022802DAB07113F059F8BAE001293DD1FB
:2051BC002078022842DAF072B3E0012936D12078B073AEE0002931D113F05AFF10B9FBF744
:2051DC0066F91DE001207075A3E0072926D10622611C02A812F0A4FC00950023217801AABA
:2051FC0002A809F01FF8B0B9F07A10B913F040FF10B1F07A012808D19DF80400FBF758F9F2
:20521C000546502012F0A4F91EE0716A9DF80420012088547DE034257BE001296DD1317C63
:20523C002078022903D0C11F0A2902D365E0102863D1F0736DE001295FD1317D207830752E
:20525C00002908BF012864D1FBF7AEF861E0012953D12078032850DCF0745AE001294CD1E9
:20527C002078022849DC002847D03074022803BF1020F0730120002013F022FE49E0012912
:20529C003BD1207812F090FA43E07079002834D1602908D1002C30D060222146184612F0B2
:2052BC0061FE012003E0012927D134B32078B0742FE0012921D104B320781949087028E04E
:2052DC00D9B913F0D5FE30B9FBF787F90546502012F03EF91DE00120B0751AE001290CD1B7
:2052FC002178022909DA012904BFB07800280FD07174084612F0B2FF0BE0182509E00F28A1
:20531C0006DA022904D121880FF082FF054600E00225284605B0F0BDF0280020044E00209C
:20533C00A85000202DE9F04FDFF84C9204460D460020ADF1440D01461F460D9016460E913F
:20535C0083460F91D9F808A0CDF840B00BF0A2FA262803D00BF09EFA252825D1308843F61B
:20537C00070181420ED040F60201814206D0B0F5C15F19D1F07B022816DD43E0F07B0228A7
:20539C0012DD3FE096F8240002280DDD307C0F2838D13169C1F31421B1F5803F04D00F283E
:2053BC0030D1B1F5A02F2DD1002D2BD056B328784FF0010808FA00F01AEA000F22D03046D7
:2053DC00594613F013FA65606C4DA660A86980B110A800900DA90EAA0FAB304606F05EFD05
:2053FC000E980B214FF6FF72502311F02DFCFF2808D013F0BFF982462878022804DB5046AB
:20541C0013F012FE5C46B2E000286DD103F05AFE5B495C4E086840F00200086009A8C9F8AE
:20543C00006012F053FF584E5849707809AA0B9005F1DC000EF012FD554905F58C7009AAF9
:20545C000EF00CFD09A812F099FE192109AB3078504A0A9005F15C0010F03AF94E4A05F102
:20547C0078001A2109AB10F033F94C495A4605F5AA7013460FF04CFE49495A4605F5CC702A
:20549C0013460FF045FE47480068C0F3814030B1454A05F1300004215B4611F025FCB07844
:2054BC00012802D10E2008F061FE05F19C0012F0CDFC05F1940012F0C9FC594685F82C1049
:2054DC0085F82010072085F84002A962A960374B197085F82D100526E960354A2E6104209E
:2054FC006A6211F083FD287805EB8001401CC1F8B440C0B22870504613F096FD1FB901A872
:20551C0012F0EAFC01AF38684FF4FA76E6602060B86941466062388A6175E082F869E062B7
:20553C00786800280CBF40F6C410594620612148E06120622175A061F86800B1E06178695C
:20555C0000B12062B86800B1A061C82204F1300059460BF018FC04F14800594611F032FA64
:20557C0015495A4604F1B00013460FF0D1FD204611B0BDE8F08FC046CC210840201B002065
:20559C0000200940110000E060B301000D7B010041D300008D31010089230100AD74010056
:2055BC0035780100B44F0050E1450100AD50002065C600002F6901002F8701002DE9F84FB2
:2055DC000446002000900CB911F028FA04F1500569462E68204607F0D5FF08B9072015E12F
:2055FC00A04641F28839DFF828B2DFF828A2002469684A7A1820604301233718A3401A421D
:20561C000AD098F80E103AF81100388000211BF80420BA73F97302E040F601003880002108
:20563C00798007F118007860387B00F0EF00387340F08000387398F80E10012916D1397B62
:20565C00002C0CBF0220052001F0F0010843387324B913F065FC00F57A6000E04846B86082
:20567C00787B00F0F00040F0020017E0002C0CBF0221002100F0F0000843387324B913F021
:20569C004FFC00F57A6000E00020B860022C797B0CBF0120022001F0F00108437873641CF4
:2056BC0006F14800386106F16801032C79619FDB98F80E000024012808F1A80718D108F19E
:2056DC009C0070631822314612F04CFC06F118002865C5F85490397801F0F00141F005013D
:2056FC003970787800F0F00040F00200787000E07463B068C8F8100047480178397413F0A4
:20571C009BFCB064454881690978CA07826912784CBF1F210F2193078269127848BF41F0C2
:20573C00200153078269107848BF41F04001020706F14C0248BF41F08001117054706968C9
:20575C00887C00F0030008F13E0150700B7863F3820050704978947061F3C3005070D47043
:20577C0040F0100050703465746508F13800F06598F80E00012818BF042815D0A86830B175
:20579C00B0F803009070A968D1F805003065E86830B1B0F80300D070E968D1F805007065BE
:2057BC001F4801684868F06508F13000B065D07D00F0EF00D07540F08000D07500F0F00074
:2057DC0040F00600D0752869B0F8030000280EBF144849F64041484370661349087838B1BF
:2057FC005078117840F0400001F0FE01507011700E498B78507859064CBF40F0200000F0CF
:20581C00DF005070009807F00DF80020BDE8F28F506E0210F46B02109F500020C8B4010026
:20583C006C0F002000204E00880E0020C00C00202DE9F04F0746F88916468A46ADF1440D63
:20585C00C01D80B205460CF0AFFA8F4CFF280BD1284605F035FB854204DD641C207800B943
:20587C0005200EE1012000E000206178D9B916B1022E18D1B8B1387AFE88BD888DF82C00F5
:20589C000023009309AAADF82A60E18E94F83300ADF82850032306F005F99DF8340038747A
:2058BC00BDF83060BE81BD8955B3FE8946B3AD1B4FF000091FFA85F84D463A7C761B202EAC
:2058DC00D4BFB6B22026E06808EB050189B2334601EB423101AA12F099FE0AEB050101A82F
:2058FC00324611F001FC58B9AD19FE89ADB2AE42E3DCB9F1010F1CBF4846B88140F0BA80E4
:20591C0094F83310E58EE06801AA04238846490312F07CFE019800F0FF007E2806D14046EE
:20593C007C2110F0D3FD019800F0FF007C2840F0A580F88942F20102C11D8EB2A9198A42F9
:20595C0040F39A80F9883A7AC1F301238DF83910B98843EA82038DF838308A1007468DF8B7
:20597C003A200423C0F3851201F0030142EA81128DF83B2010FB03F1FA1D01F0FC017B1914
:20599C0090B28DF83C101FFA83FB0D282BDB50463946002212F05EFD024605210EA812F04C
:2059BC0059FD9DF83C103B4600F03F07524641EAA011B8008DF83C1040F0020096278DF86C
:2059DC003D0029468DF83E7040460EF027FF074659460EAA0723404667700EF01FFF384360
:2059FC0060704DD135E004F1240051463A4609F08DFD0EA90A68381900F12409484609792D
:205A1C0002607B1D0171002204F1240099B212F021FD9DF83C10962300F03F078DF83E3095
:205A3C0041EAA011B8008DF83C10334640F002000EAF49468DF83D003A68B8790A60BA88AD
:205A5C00887140468A8004F1240229460EF0E6FE6070E18EAD194FEA8807AAB28919E18603
:205A7C0007EBC8010919A1F84C2048B1404659460EF0EAFC607803E0052000E00120607075
:205A9C00C0B211B0BDE8F08FE82A00202DE9F0470D4629048F4EDFF8408240F1F1808F4F9E
:205ABC0038780CF06BF8040018D021780120B02917D0B12908D0C22900F0B580D02904BFD7
:205ADC002046FBF7D5FBD1E0207920B92289E1886088FAF7EAFA204611F0D7FD85F400409A
:205AFC00F5E02179787A012910D009294DD01E2900F08D807D2908BF002806D16088FAF747
:205B1C00AFFF01466088FAF768FF86E00028FCD1207AB4F80290082835D14846FAF7A0FFAD
:205B3C0002280FD003282ED1002204214846FAF758FE0246F86900281CBF4368002B22D086
:205B5C0004211EE0002210214846FAF74AFE8246484613F0E9FA60B198F8001039B9811D6F
:205B7C004079012200F0010013F0A6F901E001203070F86900281CBF4368002B03D0524653
:205B9C00052148469847608805E0002845D1617860881A2902D1FAF7FFFE3EE0FAF760FF18
:205BBC00022819D0032838D120896688012804BF6089032806D1E068827804213046FAF746
:205BDC0010FE00E01820F96900291CBF4B68002B23D00246042117E0218966880120012905
:205BFC0004BF6189032907D1E268917821B9012210213046FAF7F5FDF96900291CBF4B68E5
:205C1C00002B0AD0024605213046984705E0B87A18B9608800210BF037F8217904F10800EE
:205C3C0013F046F957E7A07810BB0121B9742022E11C07F18C0012F095F9202204F12301E8
:205C5C0007F1AC0012F08EF9202204F1430107F1CC0012F087F9F86900281CBF4368002B00
:205C7C0006D0627806210020984701E00028D9D11B480078FF2802D0214603F097FD2DE7A9
:205C9C00690716D5174A106880B1FAF7F3FE04000CD0E07A50B90121E1726268A17A20895B
:205CBC00FAF7E6FC606808B112F000FB85F004000DE028070AD53178012902BF98F80000DF
:205CDC00002808F01BFF85F0080000E00020BDE8F08700BFA9500020AA0F0020F0280020EC
:205CFC00273000204450002038B5784D687912F0D5FA77490028086063D00022026002737D
:205D1C000868C2610262A87912F0C8FA71490028086056D000220260C27200200A6810744D
:205D3C00052308684374002209684A61E87A12F0B5FA69490028086043D0684C2178287865
:205D5C00491D10FB01F080B212F0A8FA64490028886036D0207800286FD0698811FB00F040
:205D7C0080B212F09BFA5F4A0028506029D05E482278017811FB02F080B212F08FFA5B49AC
:205D9C00002808601DD000250AE0E8B212F02EFA00214180816001800223037101736D1CBD
:205DBC002078E9B28142F0D312F078FA50490028086006D02078400012F070FA4D49002899
:205DDC0008607CD020781C2110FB01F080B212F065FA494A0028106071D02078400112F048
:205DFC005DFA46490028086069D0102012F056FA43490028086062D02078000112F04EFA25
:205E1C004049002808605AD0302012F047FA3E490028086053D020782C2110FB01F080B243
:205E3C0012F03CFA394A0028106048D0207812F035FA37490028086041D0364C364D217853
:205E5C00287800EB4100C000103080B212F026FA32490028086032D000F1080141602878BE
:205E7C00227800EB4200C000103080B212F016FA2B49086018B300F1080141601E212078E2
:205E9C00401C10FB01F080B212F008FA254A1060A8B1082012F002FA234C206078B10620BC
:205EBC0012F0FCF9216808602168086838B100204860062012F0F2F91C49086008B907206C
:205EDC0032BD12F077FC00B1002032BDC42E0020500F0020540F0020440F0020D40F0020F8
:205EFC00E04F0020780E00202330002020500020340F00202C500020980E00209C0E0020FF
:205F1C00A00E0020A40E0020A80E00201C50002034500020A3500020A25000206C0F0020FF
:205F3C00700F0020680F00203C500020400F00202DE9FE4FDFF814B29BF800000024401EDF
:205F5C0003284FF001080AD9103840F0FB80804B1878002113F0C4F8040000F0F48014B96C
:205F7C00002010F05BFD606DDFF8E8A141787A4D7A4FC806216D4CBF886CC86E06220168F5
:205F9C0001F10806B11C01A811F0ECFF3078C0F380108DF800004FF01E09367806F00F01F9
:205FBC0003292DD101A913F02FF8002827D0606D807C012818BF032821D1396801A813F075
:205FDC001FF8FF281BD019FB00F9386810F809204844411C286812F067FF9AF80010884251
:205FFC000DD038684844C11D286801AA12F058FF38684844062201A9C01D11F0B3FF94E008
:20601C0006F00F000528FAD19DF8000001A912F0FBFF760980B3396801A812F0F1FF616D70
:20603C00FF2821D0897C022918BF032919FB00F90BD1386810F809204844411C286812F0C4
:20605C0033FF9AF8001088426FD038684844C11D286801AA12F024FF38684844062201A9DF
:20607C00C01D11F07FFF24E04878C20664D5887CF8B1012859D11CE09BF80000022854D105
:20609C009DF80010386801AA13F052F8FF284CD0396819FB00F901EB0900427F012A04D001
:2060BC000D3012F085FF00283FD040F2014012F0A3FF606D4178C8063ED529498878410693
:2060DC0005D5F00703D4206D41F20A4102E0206D41F2044141804183418622480180206D46
:2060FC00816C0A6802F10801826C1068007903281BD1D1F80E0000281CBF088B002814D0BA
:20611C0091F8220010F0E00F0FD101F11E0012F0DBFE012809D11449144B154A08701A60EE
:20613C0001211448007807F063F9606D4178C80602D5216D886C01E0216DC86E016800201F
:20615C00087100E0A0464046BDE8FE8FC80F0020D50F0020A25000206C0F0020680F0020ED
:20617C00C00C00209A0F0020A5500020480F0020950B0000C70F002010B51120ADF1280D63
:20619C0011F062F8B12011F05FF8022011F06DF8352011F06AF8362011F067F8B22011F096
:2061BC0053F8022011F061F8352011F05EF8362011F05BF8B32011F047F8022011F055F823
:2061DC00352011F052F8362011F04FF8022011F04CF8352011F049F8362011F046F8B420FE
:2061FC0011F032F8072011F040F8C02011F02CF8022011F03AF8022011F037F8C12011F06A
:20621C0023F8C52011F031F8C22011F01DF80D2011F02BF8002011F028F8C32011F014F8BE
:20623C008D2011F022F81A2011F01FF8C42011F00BF88D2011F019F8EE2011F016F8C5207F
:20625C0011F002F8512011F010F84D2011F00DF8E02010F0F9FF0A2011F007F81C2011F0DB
:20627C0004F80C2011F001F8142010F0FEFF332010F0FBFF2B2010F0F8FF242010F0F5FFE8
:20629C00282010F0F2FF272010F0EFFF252010F0ECFF2C2010F0E9FF392010F0E6FF0020B2
:2062BC0010F0E3FF052010F0E0FF032010F0DDFF0D2010F0DAFFE12010F0C6FF0A2010F0E7
:2062DC00D4FF1C2010F0D1FF0C2010F0CEFF142010F0CBFF332010F0C8FF2B2010F0C5FFA3
:2062FC00242010F0C2FF282010F0BFFF272010F0BCFF252010F0B9FF2D2010F0B6FF3A201C
:20631C0010F0B3FF002010F0B0FF052010F0ADFF032010F0AAFF0D2010F0A7FF3A2010F016
:20633C0093FF062010F0A1FF292010F08DFF1E4C20684FF47A71B1FBF0F012F0ADFD362066
:20635C0010F082FF402010F090FF0EF0A3FC17492068B1FBF0F012F09FFD154906A801F104
:20637C00210213681279036008AC027168460A888B7822806931A370182209F0C7F8282082
:20639C00112106AA022300F06DFD3420222108AA022300F067FD052064216A46012300F050
:2063BC0061FD0AB010BDC0467CB4010020A10700B0AA01002DE9F84F85682A68D1694468C0
:2063DC001162490832D3D4F8D01049BB2968486820F0020048602968486A20F0030048622D
:2063FC00D4F8DC002A6941686F69096847EA0200C862D4F8DC006E6941682A69096846EA9B
:20641C000200C1F804052968486920F001004861286801210162284610F0F2FCBDE8F88F03
:20643C0003220A7402F01CFCBDE8F88FD4F8DC0041682A696F6909684FF000090226CB46B9
:20645C0047EA0200C1F80405D4F8D070002F00F0B980D4F8DC002968D5F814E04068D4F859
:20647C00F0C0D0F80080BCF1000F0CD104F1E803B1F1804F0CBF544A544AB1F1804F0CBFDB
:20649C00534854480BE004F1EC03B1F1804F0CBF514A524AB1F1804F0CBF51485148D8F829
:2064BC0004A51AEA0E0F11D0806810F0070F0DD1D7F800A0D4F8E000824507D17F692FB9AF
:2064DC00486A20F002004862C8F804E5906810F0070F74D11F68002F71D0D4F8E400BCF1E2
:2064FC00000F3844C4F8E40014BF48462020C4F8F000C3F80090D4F8D010D4F8E0200868D5
:20651C0090424BD8D4F8E420904247D881F81090D4F8D80004F1400730B9D4F8D010C4F85F
:20653C00D810D4F8D80008E04369002B34D1D4F8D0104161D4F8D01040694969C4F8D010FE
:20655C00C0F814B0D4F8F00000280CBFD4F8E800D4F8EC00C4F8E000D4F8D000C4F8E49020
:20657C0088B12046294602F037FC94F80E0178B1D4F8DC00406801686869D1F80425024248
:20659C0018BF886204E02968486A20F003004862384612F047F912E01846C5E720462946A9
:2065BC0002F01AFC94F80E0148B1D4F8DC00406801686869D1F80425024218BF8862761E0E
:2065DC007FF442AFBDE8F88F30180020001900204018002010190020301A0020001B002008
:2065FC00401A0020101B00202DE9F04386490468864D874E0A68607D8846ADF1140D401E54
:20661C000B2800F2A480DFE800F0B30609957A094E0C14351A142169886804E020698168E3
:20663C0009E02169C86809680EF0B2FD0EF090FDE6E02069C168022200200A70E0E0216972
:20665C00487C01280FD0C86809680EF0A1FD054620690168C0684A6A406800218018401C3F
:20667C000AF091FB04E0C868096811F0C9F9054628465CE0206901684A6A202A08D1294603
:20669C007C31086820F000400860206901684A6A4FF08059D9F80002C06D0092CDF8048070
:2066BC008B684A6829E020694FF080590168D9F80072CA68786D00920A6901924A6A554FBC
:2066DC0002928B684A68844630463946E047002809F5007118BF6FF0050040F091802069E3
:2066FC0002680C689168206A0091D1680191516A0291CDF80C8053683A4631466FE0216997
:20671C00087B01280FD0886809680EF041FD05462069016880684A6A406800218018401C9F
:20673C000AF031FB04E08868096811F069F9054628467BE7206941684968CA7F12F0070F10
:20675C0005D1097831F07F0701D1C90902D24FF0FF3055E04FF080590368D9F80002596AEB
:20677C00C06D0091CDF804805A68996A9B6836E04FF080592169D9F8002248680968526CA4
:20679C004068496A904709F50076002818BF6FF0040035D1216930680A68C06A1169526ADB
:2067BC000346284698473068406A80470828FAD0306840688047062818BF6FF003001FD1C6
:2067DC002069036837689968386A0091D9680191596A0291CDF80C80DA6A996A5B68044608
:2067FC002846A047D9F8B001006A014613208847D9F8B00100690146132088476FF01F0041
:20681C0005B0BDE8F083C046785000200062024060620240C0620240F8B57E487E4D0178DE
:20683C002A788A4200F0F3806A68002400E0641C8C4280F2E9804FF4D07363431344187958
:20685C000028F4D1E0B211F01FFB0121017100224271426200F161018471012200F16803AE
:20687C004A711A71012400221A609A6000F1900602814281047480F8392082610277C28344
:20689C00327000F592749A76227580271F739A730027FF22DF741A7600F20D13BE461F7082
:2068BC005F7083F802E0DF7000F589734FF01B0C1F805F8083F805E0377100F1E7063770DF
:2068DC00777000F1EC063760776086F80AE0377337727773B773F7731F815F819F81DF812B
:2068FC0047F23053A3612760E7812777677700F5C6732273A27701279F720227DF7283F847
:20691C000EE083F80CE0454F3F785F7383F806E084F80AE084F804E084F805E084F806E0FF
